:0400000001EF68F0B4
:08000800046ED8CF05F0E0CF33
:1000100006F00001E9CF0CF0EACF07F0E1CF08F0DD
:10002000E2CF09F0D9CF0AF0DACF0BF0F3CF12F01C
:10003000F4CF13F0FACF14F0F5CF15F0F6CF16F099
:10004000F7CF17F0F8CF18F0FBCF19F000C00EF083
:1000500001C00FF002C010F003C011F0F2AA34EF9B
:1000600000F0F2B4ADEF00F09DAC3AEF00F09EBCB2
:100070000CEF01F09DAA40EF00F09EBAB8EF00F03F
:100080009DA646EF00F09EB62AEF02F00EC000F0EB
:100090000FC001F010C002F011C003F00CC0E9FF66
:1000A00007C0EAFF078E08C0E1FF09C0E2FF0AC0EF
:1000B000D9FF0BC0DAFF12C0F3FF13C0F4FF14C066
:1000C000FAFF15C0F5FF16C0F6FF17C0F7FF18C0FE
:1000D000F8FF19C0FBFF045006C0E0FF05C0D8FFC1
:1000E0001000F76AF60FF66E000EF722000EF86E9B
:1000F0000900F550120050434D5F434F4E54524F8C
:100100004C4C45520000F76A1A0FF66E010EF722AA
:10011000000EF86E0900F55012000000F76A300F6B
:10012000F66E010EF722000EF86E0900F55012006F
:100130004E4E30303030303030300000F2A40AD033
:10014000010E0101D727D8B0D82BD8B4D92BD8B4F9
:10015000DA2BF2940001AEEF00F0F0D746EF00F09A
:1001600050434D5F434F4E54524F4C4C455200004C
:100170009EAA3ED004009EAAFDD7AECF2CF3030169
:100180002B513A0833E32C51030A000107E00E0A11
:1001900005E0070A03E0F50A07E013D03C0E03016F
:1001A0002B6F0101CE8B22D003012B6B036A2B51E5
:1001B000EF0FE96E020E0320EA6EEF6A010116D01E
:1001C0000001036A03012B51EF0FE96E020E0320B9
:1001D000EA6E2CC3EFFF010E2B27036A2B51EF0FA2
:1001E000E96E020E0320EA6EEF6A01010001C0D73A
:1001F0009E9A46EF00F02F31614D2564520D0000AC
:100200002F313F360D002F313F340D002F313F3855
:100210000D002F313F300D009E9C46EF00F00D0089
:10022000494E56414C4944204348414E4E454C0AA4
:100230000000494E56414C494420504152414D45E1
:100240005445520A0000494E56414C494420504101
:1002500052414D455445520A0000494E56414C49C1
:100260004420504152414D455445520A0000494EE8
:1002700056414C494420504152414D455445520A43
:100280000000494E56414C494420504152414D4591
:100290005445520A0000535543434553530A000046
:1002A000494E56414C494420504152414D455445D8
:1002B000520A0000494E56414C4944205041524197
:1002C0004D455445520A0000494E56414C49442080
:1002D000504152414D455445520A0000494E564145
:1002E0004C494420504152414D455445520A00006A
:1002F000494E56414C494420504152414D45544588
:10030000520A0000535543434553530A0000494ED7
:1003100056414C494420504152414D455445520AA2
:100320000000494E56414C494420504152414D45F0
:100330005445520A0000535543434553530A0000A5
:10034000535543434553530A0000254C752C202533
:1003500066207365636F6E64732061676F00257339
:100360002C202566207365636F6E64732061676F50
:1003700000004D434C52205265626F6F740025732C
:100380002C202566207365636F6E64732061676F30
:100390000000506F776572206F6E205265626F6F3C
:1003A000740025732C202566207365636F6E64735B
:1003B0002061676F000042726F776E6F7574205214
:1003C00065626F6F740025732C202566207365634A
:1003D0006F6E64732061676F0000536F6674205204
:1003E00065626F6F7400425546464552204F564530
:1003F0005252554E0A00535543434553530A000089
:100400005046532050434D205265763A20323031C9
:1004100036303330372D303120636F707972696731
:100420006874204A48550000494E56414C494420C2
:10043000434F4D4D414E440A000025303375303056
:1004400037343030323D3F00494F3A256C752573C3
:1004500000000D009E9646EF00F0CC0E926EC00E8E
:10046000936EDC0E946EFC0E956E9690969296941A
:1004700096969698969A7F0E976EEF0E986EE0EF8E
:1004800069F0896A8A6A8B6A8C6A8D6A800E8E6EC0
:10049000100E8F6EE2EF69F0D1C601F0D0C600F009
:1004A0000066012A0900F5CFEEFF002EFBD7012ED2
:1004B000F9D7F86A1200F250036EF29EA6840F017B
:1004C000550EA76EAA0EA76EA68200000350F21268
:1004D00000011200D08CF6503F0B006EC00EF616D5
:1004E0000A00ACC601F000660BD0F650010F08E11F
:1004F000000EF720030B04E1A6880900DCDF0A00E8
:10050000006607D0EECFF5FF015204E00F000106B0
:1005100003D000060B000C003F0EF6143F0AE3E187
:10052000CADF0166E0D7F86A1200010EF86EF76ABA
:10053000F66A030EEA6E2D0EE96E300E0601AC6F00
:100540000001C8DFCFEF02F0010EF86EF76AF66A1D
:10055000030EEA6E2D0EE96E0601D16B300ED06FE0
:1005600000019ADFD3EF02F00601456B446B060EE3
:10057000476F440E466F010EF86EF76AF66A47C67B
:10058000EAFF46C6E9FFD16B020ED06F000184DF9F
:100590000601443D06D0453D04D00001C6D703D036
:1005A00006010001D1D7E5EF69F00301605111E1C7
:1005B000C69E9E96A196CBC6C9FF020EC6BE09D0A6
:1005C0009EA6FED7A1B605D09EA6FCD7000EC5BC40
:1005D000010E016E00011200C69CC586C5B6FED78D
:1005E00000B0C59A00A0C58AC588C5B8FED7C9CFD6
:1005F00001F01200030E0601BE5F13E3060EEA6E61
:10060000BE0EE96EFC0EEF16D890EF32EF32EF50CF
:1006100008E0060E006E002EFED700D00400EF2E7C
:10062000F8D700011200C7B809D0C7B605D0C7B4C3
:1006300003D0C5501F0B02E0020E04D0C580C5B028
:10064000FED7000E0301606FA00E0601CB6F000104
:10065000ACDF44C6CBF6A9DFC7B805D0C7B403D01A
:10066000C5501F0B02E0020E04D0C582C5B2FED7F2
:10067000000E0301606FA10E0601CB6F000195DF34
:10068000006AAADF01C045F6C584C5B4FED70400E0
:10069000020E0601466FF90EBE6F0001ABDF0601C8
:1006A000462FF9D745C601F000011200060EEA6E8A
:1006B000CB0EE96EEF5011E0080E016EBF0E006E1A
:1006C0000400002EFDD7012EF9D7190E006E002E62
:1006D000FED700000400EF2EEFD712000601446B96
:1006E000036A4451006EE8BE0306016E03BE05D0E6
:1006F00003524EE101507F084BE3C7B809D0C7B69B
:1007000005D0C7B403D0C5501F0B02E0020E04D0C1
:10071000C580C5B0FED7000E0301606FA00E0601B4
:10072000CB6F000142DF44C6CBF63FDF0601456BCD
:10073000036A4551006EE8BE0306016E03BE05D094
:10074000035212E1015007080FE345514425036AA3
:10075000610FE96E030E0320EA6EEFCFCBF60001C6
:1007600024DF0601452BE4D7C584C5B4FED7140E9B
:10077000CB6F00019BDF036A06014451006EE8BEA7
:100780000306080F016E000E032201C044F6A8D72D
:1007900000013DEF04F0C7B809D0C7B605D0C7B413
:1007A00003D0C5501F0B02E0020E04D0C580C5B0B7
:1007B000FED7000E0301606FA00E0601CB6F000193
:1007C000F4DE0601CB6B0001F0DEC7B805D0C7B47C
:1007D00003D0C5501F0B02E0020E04D0C582C5B283
:1007E000FED7000E0301606FA10E0601CB6F000162
:1007F000DCDE0601446B036A4451006EE8BE03066A
:10080000016E03BE05D0035213E101507E0810E3D0
:10081000036A4451610FE96E030E0320EA6E010E74
:10082000006E0001D9DE01C0EFFF0601442BE3D7C3
:10083000036A4451610FE96E030E0320EA6E006AF9
:100840000001CADE01C0EFFFC584C5B4FED70400B5
:10085000020E0601456FF90EBE6F0001CBDE0601E8
:10086000452FF9D700013FEF04F00601446B00016A
:10087000DADE0150950802E031D701D08CD7E7EFDE
:1008800069F00201035303E1010E036F04910001BB
:100890004FEF04F0D18D0601446B0001F2D7D26B0B
:1008A000200ED36F300ED46F400ED56F500ED66F22
:1008B000600ED76FC7B809D0C7B605D0C7B403D08C
:1008C000C5501F0B02E0020E04D0C580C5B0FED794
:1008D000000E0301606FA00E0601CB6F000165DE04
:1008E000FA0E0601CB6F000160DEC7B805D0C7B4B1
:1008F00003D0C5501F0B02E0020E04D0C582C5B262
:10090000FED7000E0301606FA10E0601CB6F000140
:100910004CDE0601456B446B45BF05D0455317E1DE
:100920004451040814E3D20E4425016E000E452103
:10093000036E01C0E9FFEA6E010E006E00014CDE9D
:1009400001C0EFFF0601442BD8B4452BE5D7D20EEA
:100950004425016E000E4521036E01C0E9FFEA6ED9
:10096000006A000139DE01C0EFFFC584C5B4FED7BF
:10097000C00EA56FA80EA66F020EA76FC80EA86FB7
:10098000C00EAD6FA80EAE6F020EAF6F010EB06F4E
:10099000A969AA69AB69AC6BE9EF69F0C150C00BFA
:1009A0001309C16EC050C00B3F09C06EC08EC2801B
:1009B000C28EC282C2B2FED7C29E9D8CF7EF69F092
:1009C000030E0601AB6FE10EAA6F010EF86E800EEA
:1009D000F76EF66AABC6EAFFAAC6E9FFF20EAC6F85
:1009E000000178DD1200030E0601456FE10E446F31
:1009F000010EF86E800EF76EF66A45C6EAFF44C631
:100A0000E9FFD16BF20ED06F000146DD27EF05F054
:100A1000F2CF44F6F29E010EF86E800EF76EF66A83
:100A20000900F5500800F5CF03F0F86A060144BF4D
:100A3000F28E446F03C045F6455303E1445101086B
:100A400004E20001BDDF03D006010001CCD7F9EFBD
:100A500069F09D8A899A8B808F888E8EFBEF69F072
:100A6000D76AD66AF194F294F28A870ED56EFDEFBA
:100A700069F00701156B15510E0844E3D890010188
:100A8000D23107011A6F0101D1310701196F01013C
:100A9000D0310701186F0101CF310701176F010134
:100AA000CF51010B006E016A026A036A000ED88002
:100AB000005407011B6F000E01541C6F000E0254FE
:100AC0001D6F000E03541E6F1B51010B006E016A57
:100AD000026A1E51D00B036E005017190101CF6F2F
:100AE0000150070118190101D06F025007011919AF
:100AF0000101D16F035007011A190101D26F0701DB
:100B0000152BB9D70101CFC101F0D0C102F000010E
:100B10001200D2C161F6D1C160F6D0C15FF6CFC17B
:100B20005EF606015A530BE15B5309E15C5307E1A2
:100B30005D5305E15D6B5C6B5B6B010E5A6F5DC6CF
:100B4000D2F15CC6D1F15BC6D0F15AC6CFF1626B6F
:100B500062510F0805E300018CDF0601622BF8D714
:100B60005EC600F05FC601F060C602F061C603F029
:100B700000011200C2CF53F6C0CF54F6D5CF55F6C0
:100B8000D6CF57F6D7CF56F6010EC26E3F0EC06EC7
:100B9000880ED56E0601446B4E6B4D6B4C6B4B6BE8
:100BA0004A6B496B000165DF0601526B516B02C055
:100BB00050F601C04FF6D76AD66AC2820400C2B2AC
:100BC000FED7D6CF47F6D7CF48F6000152DF02C096
:100BD00046F601C045F6060147514B2748514C23C4
:100BE000000E4D234E234E530DE14D515E0819E288
:100BF000FF0A08E14C515D0814E2FF0A03E14B5182
:100C00000F080FE2000135DF015006014F1B0250B3
:100C1000501B00012EDF01500601511B0250521BD8
:100C200037D04751495D04E148514A5D01E1C3D7DE
:100C30004751495D006E48514A59036E00504525A1
:100C4000586F03504621596F5D6B5C6B5B6F58C6E4
:100C50005AF600015EDF48C64AF647C649F6D89004
:100C600006014F37503751375237000102DF02C0BB
:100C700059F601C058F606010150800B006E036A58
:100C80000050031001E04F81442B01E101D093D7C4
:100C900053C6C2FF54C6C0FF56C6D7FF57C6D6FFBD
:100CA00055C6D5FF4FC600F050C601F051C602F040
:100CB00052C603F00001ECEF0AF05EC7F3FFF3CF7A
:100CC00061FF120045C6B4FE46C6F3FF47C6F4FFF7
:100CD000F250C00B0601486F3F0EF216F3CFB6FE7E
:100CE0000000F4CFB7FE4851F2120E018AB1FED7D0
:100CF00000011200FC0E92160E01FE8BFDA1FED724
:100D00000101E56BE581E26BE16B0E01E96BE86BDC
:100D1000210EEC6F160EED6FEB6F210EEA6F160EC3
:100D2000E56F220EE46F160EE36F220EE26F0701ED
:100D30005E6B0001C2DF0D0E0E01A06F0000320ECF
:100D4000A26F0000120EA46F0000400EA36F0000FF
:100D5000120EA66F00000C0EA76F0000EE0EAA6F19
:100D60000000050EAB6F0000D2C084FE0000D3C0AF
:100D700085FE0000D4C082FE0000D5C083FE0000C6
:100D8000D6C080FE0000D7C081FE0000100E060114
:100D9000456F010E476F100E466F000193DF140E72
:100DA0000601456F340E476F720E466F00018ADFF1
:100DB0000601456B476B466B000184DFD28403EF6D
:100DC0000BF00601C851090801E23BD0C851170DCC
:100DD000F350CA6BC96F0C0EC925016E000ECA21F3
:100DE000036E0150D90FE96E000E0320EA6EEC6A23
:100DF000ED52EF6AC851170DF350CA6BC96FD90E87
:100E0000C925E96E000ECA21EA6EEE52EE52EC6A76
:100E1000ED52EF6AED52EF6AED52EF6AC851170DCD
:100E2000F350CA6BC96F0E0EC925016E000ECA21A0
:100E3000036E0150D90FE96E000E0320EA6E040E16
:100E4000EF6E000112000601446B4451090807E3EC
:100E500044C6C8F60001B5DF0601442BF6D70101F0
:100E6000FA83000104EF0BF0016603D0026602D0A2
:100E700007D0022A00C0EEFF012EFCD7022EFAD7BF
:100E800012000601FB5102017F5D01E149D07F5153
:100E9000FE081EE07F511C0DF350036A200F016E07
:100EA000020E032201C0FCF6060103C0FDF6020E8D
:100EB000FF6FBC0E03C0EAFF01C0E9FFFFC6E2FFFF
:100EC000E16E1C0E016EE6CFEEFF012EFCD7020193
:100ED000FBC67FF20601FB51FE0803E1020120D0B0
:100EE0000601020EFD6FBC0EFC6FFB511C0DF35092
:100EF000036A200F016E020E032201C0FEF603C03A
:100F0000FFF6FDC6EAFFFCC6E9FF03C0E2FF01C031
:100F1000E1FF1C0E016EE6CFEEFF012EFCD70201B1
:100F200000011200E3CE4DF7E2CE4CF74BC7E3FED3
:100F30004AC7E2FE07014CC701F04DC702F00001AD
:100F40001200070162C703F06151D8B4620761075C
:100F500003100EE060C703F05F515F2BD8B4602B25
:100F6000E96E03C0EAFFEFCFF3FFF3CF61FFEAD7EB
:100F7000000112007BCF4DF77ACF4CF74BC77BFFB8
:100F80004AC77AFF07014CC701F04DC702F00001C4
:100F900012005EC760F75DC75FF707015B515C1128
:100FA00015E060C703F05F51D8B460075F07031016
:100FB0000CE05CC703F05B515B2BD8B45C2BE96E93
:100FC00003C0EAFF61CFEFFFECD70BD060C703F09F
:100FD0005F51D8B460075F07031003E061CF61F78A
:100FE000F5D75DC701F05EC702F000011200615045
:100FF000016E12000701549154934A3D07D04B3DB6
:1010000005D05481E3CE4BF7E2CE4AF74C3D07D0F2
:101010004D3D05D054837BCF4DF77ACF4CF74F53DE
:1010200031E14E5101082EE37BCF51F77ACF50F7D3
:10103000E3CE53F7E2CE52F74DC77BFF4CC77AFFA2
:101040004BC7E3FE4AC7E2FE4FC703F04E51D8B488
:101050004F074E07031009E00001C9DF01C055F733
:1010600001C05EF72ADE0701EFD754B304D051C7A1
:101070007BFF50C77AFF54B104D053C7E3FE52C779
:10108000E2FE57D054A10AD04E514A25526F4F511B
:101090004B21536F53C7E3FE52C7E2FE010E4C5D76
:1010A000006E000E4D59036E00504E2703504F2323
:1010B000D2BAFED74DC7F1FE4CC7F0FE4BC7F5FEC6
:1010C0004AC7F4FE4D51160810E303E14C512108C4
:1010D0000CE34F51150809E2FF0A03E14E512108C4
:1010E00004E2220E4E5F160E4F5B4FC7F3FE4EC753
:1010F000F2FED298D28AD2BAFED754A31AD04E2B7F
:10110000D8B44F2B4D51160810E303E14C51210880
:101110000CE34F51150809E2FF0A03E14E51210883
:1011200004E2220E4E5F160E4F5B4FC77BFF4EC789
:101130007AFF00011200000ED2AA010E016E120009
:1011400007014751010A000103E0010A3AE06AD0B1
:1011500007014451010A000103E0010A1AE030D0FE
:1011600043C7EAFF42C7E9FF46C7E2FF45C7E1FFC1
:1011700049C702F048C701F0015202E0022A02D03A
:10118000025206E0E6CFEEFF012EFCD7022EFAD780
:1011900017D00701423D03D0433D01D007D043C7DC
:1011A0004BF742C74AF70001BDDE070146C760F7AB
:1011B00045C75FF749C762F748C761F70001C1DE5D
:1011C00031D007014451010A000103E0010A19E08E
:1011D00028D00701453D03D0463D01D007D046C782
:1011E0004BF745C74AF70001C5DE070143C75CF767
:1011F00042C75BF749C75EF748C75DF70001C9DE24
:1012000010D043C74BF742C74AF746C74DF745C70B
:101210004CF749C74FF748C74EF7ECDE8CDF015259
:10122000FDE000D0120002017F51D85D01E163D0E2
:10123000D851FE083DE0D8511C0DF35007013C6B1E
:101240003B6F200E3B25E96E020E3C21EA6EECCF8F
:101250003EF7ED52EFCF3DF7270E3D5F000E3E5BB0
:101260000201D8511C0DF3500701406B3F6F1B0E5C
:101270003F25016E000E4021036E0150200FE96EE4
:10128000020E0320EA6EEFCF44F7020E416F580EB4
:10129000406F3EC743F73DC742F741C746F7456F2A
:1012A000010E476F496B270E486F000149DF0201AD
:1012B0007FC2D8F2020E07013C6F580E3B6F270E1B
:1012C0000201BC5D07013D6F000E0201BD5907011F
:1012D0003E6F3CC743F73BC742F7010E446F3EC722
:1012E00046F73DC745F7D7C247F7496B270E486F0A
:1012F000000126DF02010001120095DF69C2D6F26B
:1013000068C2D5F2BDC2C3F2BCC2C2F2BDC2C5F250
:10131000BCC2C4F2BFC2C7F2BEC2C6F2BFC2C9F2EB
:10132000BEC2C8F20201D3A702D0040E01D00D0E36
:10133000D26FF80ED315D36FD399D39BD39DD39F80
:10134000D491D493D495D497D4897A917A937A9777
:101350007A99BDC265F2BCC264F2020E0701126F37
:101360005C0E116F016E12C703F0136F12C714F7F2
:10137000000139EC05F014C7EAFF13C7E9FF02C00A
:10138000ECFFED5201C0EFFF020E0701126F5C0E81
:10139000116F020E1125016E000E1221036E01C0A5
:1013A00013F7146F000139EC05F014C7EAFF13C7F7
:1013B000E9FF02C0ECFFED5201C0EFFF02017969C5
:1013C00078696B6B010E6A6F000112001C0E06013A
:1013D0004E6F140E4D6F020E506F800E4F6F50C641
:1013E000EAFFE96E006A026A3C0E016E00013CDD14
:1013F0000601456B446B44510108D8A0B3D044C6E4
:10140000FBF600013EDD06014451060DF350506B22
:101410004F6F010E4F25016E000E5021036E0150DB
:10142000990FE96E000E0320EA6EEFCF4CF644519F
:10143000060DF350506B4F6F020E4F25016E000EDC
:101440005021036E0150990FE96E000E0320EA6EE1
:10145000ECCF47F6ED52EFCF46F64451060DF35070
:10146000506B4F6F040E4F25016E000E5021036E1E
:101470000150990FE96E000E0320EA6EECCF49F699
:10148000ED52EFCF48F64C51000A000101E027D0A1
:101490004EC64BF64DC64AF6270E060146254F6F3F
:1014A000000E4721506F010E4F27000E5023485168
:1014B0004F2749515023010E4F25016E000E502138
:1014C000036E01504D2703504E234E511E0805E276
:1014D000FF0AFBE14D51FC08F8E303D00001FFD700
:1014E00006014CC6D7F2270E4A250201BC6F000E3A
:1014F00006014B210201BD6F060146510201BC25C8
:1015000006014F6F47510201BD210601506F010EC8
:101510004F250201BE6F000E060150210201BF6F70
:10152000060148510201BE25C06F06014951020162
:10153000BF21C16F0D0ED26FD397000174DE06017B
:101540004451060DF350506B4F6F990E4F25E96EC5
:10155000000E5021EA6EEFCF7EF20001CEDE0601D2
:10156000442B49D7000105EF0BF00101CEB70BD09A
:10157000CE870601C76BC75305E102010269060168
:10158000C72BF9D701010201023D01D006D002C2EA
:10159000C8F6000116DC02010269010E036F046B3C
:1015A00004890483000112000201023D01D006D02B
:1015B00002C2C8F6000105DC02010269036B0001EA
:1015C0000FEF0BF00101C36B0001D18F0101CEB110
:1015D00017D00001BAEF05F003C047F602C046F687
:1015E00001C045F600C044F603C05DF602C05CF6DB
:1015F00001C05BF600C05AF689EC05F00101CE810E
:1016000000017AEF06F01FD4E1D60601C66B000197
:10161000ACDFD1BD04D00601446B0001C5D702EF99
:101620006AF0A1A20AD0010E1D26D8B01E2AD8B495
:101630001F2AD8B4202AA1920ED0B250B3CF03F003
:10164000A1A20CD0010E1D26D8B01E2AD8B41F2A84
:10165000D8B4202AA192B250B3CF03F003C000F057
:101660001DC001F01EC002F01FC003F02050E83280
:101670000332023201320032E832033202320132E6
:10168000003212007F0E0601446F000113EC03F0DC
:10169000015027EF6AF08E0E006EBEC601F0BDC687
:1016A00002F0036A015209E102C001F0026A080E69
:1016B000005E015202E1006A08D0D89001BE04D059
:1016C000023601360006F9D7019E12000601E151EB
:1016D000D8B471D0006EE551D8B46DD0002604E3C3
:1016E000810E002668E204D07F0E005E64E363E0B2
:1016F000E2C6E9F6E651E91BE28FE68FE451E80322
:10170000F4CFEBF6E351E703F4CF03F0F3CFEAF6BF
:10171000E803F350EB27F450EA23000E0322E451D0
:10172000E703F350EB27F450EA23000E026A03228A
:101730000222E251E803F350EA27F4500322000E9C
:101740000222E251E703F3500326F4500222000E76
:10175000016A0122E451E603F350EA27F450032220
:10176000000E02220122E351E603F3500326F45057
:101770000222000E0122E251E603F3500226F45049
:101780000122002A01BE05D0EA37033602360136AF
:101790000006000EEAAF0AD0032A022201220150FD
:1017A00005E1025003E1035001E1002AE9BF018E87
:1017B000E9AF019E04D0006A016A026A036A00016F
:1017C00012008E0E006E0601BD51005EBEC602F014
:1017D000BFC601F0028E005209E0D890025202E129
:1017E000015204E002320132002EF7D7BEAF05D01D
:1017F000011E021E012AD8B4022A00011200D2C31F
:10180000D3F452EF6AF0C7C6B4FE0000010E0E0119
:10181000B26F00008AB1FED7B26B0000B8CEC8F636
:101820000000B9CEC9F60601C8C601F0C9C602F06B
:10183000000120EF0CF0010E0601C76F0001E3D795
:1018400001C0C7F6000E060101B4010E016E0001D1
:1018500012000601D26BD90ED16FD06BD05109089E
:10186000D8A0A1D00C0ED125E96E000ED221EA6ECF
:10187000ECCFD4F6ED52EFCFD3F6D353D8A48DD01E
:10188000D453D8A48AD00C0ED125E96E000ED221F3
:10189000EA6ECDC6ECFFED52CCC6EFFFCC5323E190
:1018A000CD5321E10101FD511F0805E2FF0A06E1C8
:1018B000FC51000803E3FD510F0803E3100EFD6F18
:1018C000FC6B0C0E0601D125E96E000ED221EA6EEA
:1018D0000101FDC103F0FC51FC2BD8B4FD2BEF6ED0
:1018E00003C0ECFF0601CB5308E0C75321E1C85306
:1018F0001FE1C9531DE1CA531BE1D2C603F0D1C693
:10190000D3F6D2C6D4F6D2C6EAFFD1C6E9FF006844
:10191000026A0A0E016E000134EC07F00E0E060199
:10192000D125E96E000ED221EA6E050EEF6E25D0AC
:10193000CB51040A000101E01FD00601D2C603F01A
:10194000D1C6D3F6D2C6D4F6D2C6EAFFD1C6E9FFD5
:10195000C8C6E2FFC7C6E1FF0A0E016EE6CFEEFF82
:10196000012EFCD70E0ED125E96E000ED221EA6EB3
:10197000050EEF6E02D0000106010A0ED125E96EB8
:10198000000ED221EA6ECFC6ECFFED52CEC6EFFFBD
:10199000D0C6D8F0D0C601F008D0170ED127D8B0E5
:1019A000D22BD02B5BD7FF0E016E00011200F28A02
:1019B0000000F29AD6CFDBF1D7CFDCF1010E0701A0
:1019C0003D6FDD0EE96E3DC7EAFFD7C1EFFFD8C11D
:1019D000ECFFD9C1ECFFDAC1ECFFF2A402D00001A8
:1019E000E6D7F28A00011200E2DF010E07013D6F27
:1019F000DB0E3DC703F0E96E3DC7EAFFEFCF00F015
:101A0000ECCF01F0ECCF02F0ECCF03F000011200BC
:101A1000D28ED29E080E07013B6F3B513B07000A56
:101A2000FCE16092D2860001DFDF01C0E7F100C077
:101A3000E6F11200D2B603D0010E016E18D0D4DF49
:101A400001C03CF700C03BF70101E65107013B5FD5
:101A50000101E75107013C5B03E13B51480804E207
:101A6000D2960001D5DF0701000E016E00011200C1
:101A7000080E0601C825CA6F000EC921CB6F230EC0
:101A8000CA27160ECB230E0ECA27000ECB23140E28
:101A9000CA27000ECB23CBC64BF7CAC64AF70001B4
:101AA00092EC07F0C9C6F7F1C8C6F6F16DEF0DF07C
:101AB000C1DF015204E1000E016E026E1CD006016E
:101AC000C7510101F55D0AE0C7C6F5F1C06BBF6BF8
:101AD0000601C96BC86B0001CBD70101C7C6D8F09E
:101AE000C00ED880BF55006E050EC055036E00C0F5
:101AF00001F0026E000112000601E76BE86B010EB7
:101B0000E96FDA6AD96A060EEC6FDF0EEB6F060E2C
:101B1000EA6EE30EE96EECC6E2FFEBC6E1FFE9C652
:101B2000EAF6D890E550EE02F350E723F450E823AC
:101B3000EA2FF7D7E7C6DEFFE8C6E7F6E86BD8B0CE
:101B4000E82BEB2BD8B4EC2BE92BE9510508DFE1AE
:101B500000011200016A026A006A036A0601E55187
:101B600002E1E45118E0100EE66FD890E237E33757
:101B700000360336E551035C02E1E451005C07E303
:101B8000E451005ED8A00306E551035ED88001361B
:101B90000236E62FEAD7000109EF0EF098C0E2F610
:101BA00097C0E1F696C0E0F695C0DFF6410E06015B
:101BB000E66FC60EE56F4E0EE46F6D0EE36F00012B
:101BC0009BDF390E060100240001956F300E0601DF
:101BD00001200001966F000E060102200001976FA0
:101BE000000E060103200001986F97C000F098C016
:101BF00001F0026A036A98C0E1F697C0E0F698C067
:101C0000E3F697C0E2F67F0E0601E56FE469000196
:101C1000A1D700C001F003C002F012000101F7518A
:101C2000040808E2FF0A03E1F651BF0803E2000ED0
:101C3000016E16D0E1C65EF700015DEC06F0010111
:101C4000F62BD8B4F72BC051F75D08E303E1F6514A
:101C5000BF5D04E2F7C1C0F1F6C1BFF1010E016E34
:101C600000011200C00ED8800101F6550601E36F95
:101C7000050E0101F7550601E46FE451E25D08E34A
:101C800003E1E151E35D04E2E4C6E2F6E3C6E1F616
:101C9000E1510101F6270601E2510101F723C0518C
:101CA000F75D08E303E1F651BF5D04E2F7C1C0F15F
:101CB000F6C1BFF1E0C660F7DFC65FF7E2C662F7C4
:101CC000E1C661F70001A1EC07F00601E1C601F0F1
:101CD000E2C602F000011200E0C6E2F6DFC6E1F65D
:101CE000E2C603F00601E1C6E9FFE2C6EAFFEF52F1
:101CF00006E0E12BD8B4E22B0001F2D70601DF5158
:101D0000E15D006EE051E259036E00C001F0026E29
:101D1000000112000900F55210E0F6CFDDF6F7CF12
:101D2000DEF6F8CFDFF6F5CFE1F678DFDDC6F6FFB9
:101D3000DEC6F7FFDFC6F8FFEDD7A8EF11F05BC7EF
:101D40005DF75AC75CF75DC75EF75CC75DF75EC7B6
:101D50005CF707015CC701F05DC702F000011200EB
:101D6000020E07015425016E000E5521036E01C0BD
:101D700056F7576F020E5425E96E000E5521EA6E94
:101D8000ECCF5BF7ED52EFCF5AF70001D8DF57C722
:101D9000EAFF56C7E9FF02C0ECFFED5201C0EFFFBA
:101DA000040E07015425016E000E5521036E01C07B
:101DB00056F7576F040E5425E96E000E5521EA6E52
:101DC000ECCF5BF7ED52EFCF5AF70001B8DF57C702
:101DD000EAFF56C7E9FF02C0ECFFED5201C0EFFF7A
:101DE0000A0E07015425016E000E5521036E01C035
:101DF00056F7576F0A0E5425E96E000E5521EA6E0C
:101E0000ECCF5BF7ED52EFCF5AF7000198DF57C7E1
:101E1000EAFF56C7E9FF02C0ECFFED5201C0EFFF39
:101E20001200D890070159315B6F58315A6F57C76C
:101E30005DF756C75CF7616B606B5F6B5E6B5BC792
:101E400003F05A51D8B45B075A0703101EE05DC770
:101E500003F05CC700F0020E5C27D8B05D2B00C019
:101E6000E9FF03C0EAFFECCF03F0ED52EFCF00F043
:101E700003C001F0026A036A00505E2701505F232D
:101E80000250602303506123DAD75851010B006ED2
:101E9000036A0050031011E05CC7E9FF5DC7EAFF69
:101EA000EFCF00F0016A026A036A00505E2701501A
:101EB0005F230250602303506123656B646B5FC72F
:101EC00063F75EC762F760C700F061C701F0026A9E
:101ED000036A60515E255E6F61515F215F6F025042
:101EE0006421606F03506521616F60515E2761510D
:101EF0005F235FC703F0031E5E51FF0A016E03C03C
:101F000002F000011200160E0E01E36F230EE26FC5
:101F1000300E07015B27160E5C235CC7E7FE5BC72C
:101F2000E6FE59C760F758C75FF7626B060E616F30
:101F30000001A1EC07F007015E6BD20E5D6F5EC77A
:101F400060F75F6F626B060E616F0001A1EC07F036
:101F5000080E07015E6F00015DEC06F007015A53A1
:101F600002E1000E01D0060E5D6F5E6F00015DECB8
:101F700006F01200140E0101EA6F450E0701406FD2
:101F8000416B140E3E25426F000E3F21436F01014D
:101F9000E82BD8B4E92BE9C145F7E8C144F70701BC
:101FA000476B466B640E486F3DC749F74B6B4A6BF6
:101FB000A8C04FF7A7C04EF7A6C04DF7A5C04CF775
:101FC0003BC7E9FF3CC7EAFFEFCF50F7ECCF51F733
:101FD000ECCF52F7ECCF53F7070E556F400E546F0E
:101FE0000001BEDE070E0701556F400E546F55C746
:101FF00057F7566F596B140E586F000112DF02C06D
:102000004BF701C04AF7040E07013B25016E000E95
:102010003C21036E01C054F7556F140E3E25566FD8
:10202000000E3F21576F03C059F701C058F75A6B94
:102030005C6F56C75BF7000166DF070E0701556F3F
:10204000400E546F55C760F75F6F626B140E616F7F
:102050000001A1EC07F0000E016E026E1200D851D3
:10206000170DF350036AD90F016E000E032201C051
:10207000E5F6060103C0E6F6080E0101BF250601DC
:10208000E76F000E0101C0210601E86F0C0EE52587
:10209000E96E000EE621EA6EECCF5BF7ED52EFCF72
:1020A0005AF700014CDE02C0DEF601C0DDF60A0E72
:1020B0000601E525E96E000EE621EA6EECCF5BF73E
:1020C000ED52EFCF5AF700013ADE02C0E0F601C050
:1020D000DFF6E8C65BF7E7C65AF731DE02C0E2F684
:1020E00001C0E1F60601E46BE36B160E07014B6FCE
:1020F000310E4A6F000192EC07F0E5C601F0E6C62A
:1021000003F0E5C6E9F6E6C6EAF6E6C63CF7E5C63C
:102110003BF7110E07013D6FE8C63FF7E7C63EF7F4
:10212000000128DF060E0601EA6FDD0EE96FEAC640
:1021300060F7E8CF5FF70701626B080E616F00017F
:10214000A1EC07F065DC0101C06BBF6BF569000114
:102150001FEF12F00601C72D10D000011FDD02C0D5
:10216000DEF601C0DDF61ADDDDC600F2DEC601F2E4
:1021700001C0FEF102C0FFF10601010EE16F000196
:102180004DDD010E0601E16F000148DD060E06017E
:10219000E16F000143DD0601E16B00013FDDFEC19F
:1021A000DDF6FEC1E1F63ADDFFC1DDF6FFC1E1F685
:1021B00035DD00C2DDF600C2E1F630DD01C2DDF63C
:1021C00001C2E1F62BDD0601E16B000127DD06010E
:1021D000E16B000123DD020104A902D0000E01D051
:1021E000800E0601DD6FE16F000118DD0601E16B75
:1021F000000114DD0601C751030810E1C8530EE0C9
:10220000020EDE6F110EDD6FDEC6E0F6DF6FE26BF1
:10221000040EE16F000126DD10D00601E16B000124
:10222000FDDC0601E16B0001F9DC0601E16B000158
:10223000F5DC0601E16B0001F1DC0601C96BC95157
:102240000B0806E3E16B0001E9DC0601C92BF7D7B7
:10225000DE6BD20EDD6FDEC6E0F6DF6FE26B060EE0
:10226000E16F0001FFDC0601C96BC951C90806E333
:10227000E16B0001D3DC0601C92BF7D7630EE16FD8
:102280000001CCDC820E0601E16F0001C7DC530EB9
:102290000601E16F0001C2DC630E0601E16F00017F
:1022A000BDDC350E0601E16F0001B8DC010E060150
:1022B000E16F0001B3DCC7C6E1F6B0DC0601C72D53
:1022C00003D0020104950601C751030818E1C85361
:1022D00016E1360EE16F0001A1DC040E0601E16F8C
:1022E00000019CDC10C2E1F699DC0FC2E1F696DC3D
:1022F0000EC2E1F693DC0DC2E1F690DC06010C0E95
:10230000E16F00018BDC060EEA6ECE0EE96E0F0E59
:10231000016EF76A000E71EC00F00A000900F5CFBB
:10232000EEFF012EFBD7060E0601E06FCE0EDF6F2B
:102330000001D2DC02C0E0F601C0DFF601C0E1F628
:102340006DDC600EF66E010EF76E000EF86EE2D4D4
:10235000370E0601E16F000161DC040E0601E16F3A
:1023600000015CDC010E0601E16F000157DC030E89
:102370000601E16F000152DC060E0601E16F00016B
:102380004DDC0C0E0601E16F000148DC0601C7516F
:10239000030802E1C85318E0C72D2DD002011153E4
:1023A000D8B402D0060110D01253D8B402D006011E
:1023B0000BD01353D8B402D0060106D01453D8A4BE
:1023C00002D0060118D00601320EE16F000126DCB2
:1023D000040E0601E16F000121DC020E0601DE6F32
:1023E000110EDD6FDEC6E0F6DF6FE26B040EE16F0B
:1023F000000138DC0601E169000110DC0101C05177
:1024000001080AE303E1BF512B0806E30601E16B73
:10241000000104DCF3D70101A8C0CDF6A7C0CCF6BB
:10242000A6C0CBF6A5C0CAF60601C85306E1000156
:10243000A86BA76BA66BA56B0601000110D6CDC6D5
:10244000A8F0CCC6A7F0CBC6A6F0CAC6A5F012006D
:10245000140E0101E32507011D6F000E0101E421A7
:1024600007011E6F19511D251B6F1A511E211C6F6C
:102470001C51150809E2FF0A03E11B51210804E27F
:10248000220E1B5F160E1C5B1BC77AFF1CC77BFF4F
:10249000000112000101EA5107011525176F000E16
:1024A0001621186F1A6F17C719F70001D1DF120034
:1024B000080E0601D425D66F000ED521D76FE8CFC0
:1024C00016F7D6C615F70001E5DFD5C6F9F1D4C673
:1024D000F8F11200C7C6D8F00601C7510101FB5D33
:1024E00004E0000E016E026E12D0FAA107D0FA913C
:1024F0000601D56BD46B0001DBDF0101F851C15D32
:10250000006EF951C259036E00C001F0026E000165
:1025100012000101C251F95D04E308E1C151F85D07
:1025200005E20001D8510101FB5D03E0000E016EE0
:1025300015D0D7C603F0D6C6D8F6D7C6D9F600014F
:10254000F7EC07F0D9C6EAFFD8C6E9FF01C0EFFFF4
:102550000101F82BD8B4F92B010E016E0001120015
:102560000101C251F95D04E308E1C151F85D05E2E2
:102570000001D8510101FB5D04E0000E016E026E06
:1025800031D0F851C15D0601DA6F0101F951C2592C
:102590000601DB6FDB51D95D08E303E1D851DA5D59
:1025A00004E2DBC6D9F6DAC6D8F6D7C65CF7D6C6DB
:1025B0005BF7D9C65EF7D8C65DF70001C9EC07F036
:1025C00002C0D9F601C0D8F60601D8510101F8279A
:1025D0000601D9510101F9230601D8C601F0D9C677
:1025E00002F0010100011200240E1C6E0101E5A1A0
:1025F00001D023D0E581250E1C6E010EE15D0601A0
:10260000F16F000E0101E2590601F26F320E1C6EED
:10261000F251150809E2FF0A03E1F151210804E231
:10262000160EF26F210EF16F0E01FE8D330E1C6E31
:10263000F1C6ECFEF2C6EDFE01010001120001013F
:10264000FAB307D00001D0DF0101C26BC16BFB6997
:10265000FA83000112000601CA6B060ED76FC70E7F
:10266000D66F000156DF0601C7510208D8A4BFD1BA
:10267000D56B040ED46F00011BDF060E0601D76F69
:10268000D00ED66FD96B040ED86F000169DF01013F
:10269000FE510601D05D0FE10101FF510601D15D40
:1026A0000AE1020100510601D25D05E1020101517A
:1026B0000601D35D01E0C6D1D56B1C0ED46F0001BD
:1026C000F7DE0601C86BC851050814E3060ED76F84
:1026D000C70ED66F00011DDF036A0601C851D20F75
:1026E000E96E000E0320EA6EEF50C75D01E0AAD14B
:1026F000C82BE9D7020104B515D00601D56B100E21
:10270000D46F0001D5DE020E0601D56F110ED46F15
:10271000D5C6D7F6D66FD96B040ED86F000120DF6F
:1027200002011D810601D56BF00ED46F0001C0DEE1
:102730000601CB91060ED76FC70ED66F0001E9DEFA
:10274000015204E10601CB8152D100010601C751BB
:10275000350A00010EE0340A2DE0020A5DE0350A78
:10276000D8B49AD0C90AD8B4C3D0CC0AD8B4C4D08B
:1027700026D1060E0601D76FC70ED66F0001C9DE3F
:102780000601C72D14D0060ED76FCA0ED66F0001F2
:10279000C0DE020104A509D00601CA510208D8B45E
:1027A00002D0020102D04ED1020103D006014AD16B
:1027B00002011AD1060E0601D76FC70ED66F0001AF
:1027C000A8DE0601C751040824E1020104A510D0C7
:1027D0000601C86BC851030809E3060ED76FC70E80
:1027E000D66F000196DE0601C82BF4D711D0020186
:1027F000020E0601D56F190ED46FD5C6D7F6D66F67
:10280000D96B040ED86F0001ABDE02011D850601F5
:1028100001D018D10201E8D0060E0601D76FC90E0B
:10282000D66F000176DE0601C951030824E20201D9
:1028300004A510D00601C86BC851030809E3060EB1
:10284000D76FC70ED66F000164DE0601C82BF4D720
:1028500011D00201020E0601D56F150ED46FD5C638
:10286000D7F6D66FD96B040ED86F000179DE02015E
:102870001D83060101D0E6D0040EC95FC951C90706
:10288000000A08E0060ED76FC70ED66F000141DEC2
:102890000601F4D70201A8D0060E0601D76FC70EB5
:1028A000D66F000136DE0601C75104081DE1060E91
:1028B000D76FCF0ED66F00012CDE060E0601D76F44
:1028C000CE0ED66F000125DE060E0601D76FCD0EA7
:1028D000D66F00011EDE060E0601D76FCC0ED66F36
:1028E000000117DE03D00601ADD0000102017CD04B
:1028F0000601CB81020178D0060E0601D76FC70E04
:10290000D66F000106DE0601C751040854E102013A
:1029100004A510D00601C86BC851030809E3060ED0
:10292000D76FC70ED66F0001F4DD0601C82BF4D7B0
:1029300041D00201020E0601D76F0C0ED66F0001C6
:10294000E8DD020E0601D76F0B0ED66F0001E1DD48
:10295000020E0601D76F0A0ED66F0001DADD020EF5
:102960000601D76F090ED66F0001D3DD02010C31CD
:10297000036E0B31026E0A31016E0931006E0332B3
:1029800002320132003203320232013200320332AB
:102990000232013200320332023201320032070EBB
:1029A00003160050095F01500A5B02500B5B035095
:1029B0000C5B060101D046D0020116D00001060EC4
:1029C0000601D76FC90ED66F0001A3DD0601C951FC
:1029D000C907000A08E0060ED76FC70ED66F0001C0
:1029E00098DDF4D7060102010601CBA1A3D6CA5196
:1029F00002080CE1CFC610F2CEC60FF2CDC60EF221
:102A0000CCC60DF20201048517D00601CC5102019B
:102A10000D5D0FE10601CD5102010E5D0AE10601D7
:102A2000CE5102010F5D05E10601CF510201105D9B
:102A300003E00601CA6B0201000101DE0601CAC6FD
:102A400001F005D00001FBDD000E016E0601000162
:102A50001200110E1C6E0601C66BC653D8A48AD292
:102A600002010351F30FD8B082D20D0F0001BDEF68
:102A700017F002017CD2120E1C6E0601CA6BC96BE4
:102A8000C86BC76BCB6BCD6B440ECC6FCF6B430E5B
:102A9000CE6F000129EC0CF001C002F20201023DF0
:102AA00001D065D2020E036F0001130E1C6E0201ED
:102AB0000C6B0B6B0A6B3C0E096F1D6B049104953C
:102AC00000011BEC0CF0015203E1020150D20001A5
:102AD00002C2C7F658EC0DF002C0C8F601C0C7F636
:102AE00006010250010807E303E1C7512B0803E385
:102AF00002013DD20601000E020104B9010E010AD5
:102B00000499E8B004890251170DF3500601C86B0F
:102B1000C76FD90EC725016E000EC821036E01C014
:102B2000C9F6CA6FEA6E01C0E9FF0068026A0A0EC0
:102B3000016E000134EC07F0010E0601C76FC86B8F
:102B40000001AAEC10F0F4EC0CF003C008F202C093
:102B500007F201C006F200C005F2030E0201036F86
:102B600006D2140E1C6E02C2C7F6B4DC02C0C8F650
:102B700001C0C7F60601C85333E1C751F90830E375
:102B80000001F4EC0CF003C0CAF602C0C9F601C0A3
:102B9000C8F600C0C7F6020105510601C75F020171
:102BA00006510601C85B020107510601C95B02011B
:102BB00008510601CA5B0DE1C95100080EE2FF0A87
:102BC00008E1C851DB0809E2FF0A03E1C751D50853
:102BD00004E2020E0201036F06010201C8D10601E0
:102BE00002010487000137DD0150020803E0020101
:102BF000BED10001040E0201036F0001150E1C6E10
:102C000002C2C7F658EC0DF002C0C8F601C0C7F604
:102C100006010250010807E303E1C751010803E37D
:102C20000201A5D1060102010251170DF350060160
:102C3000C86BC76FD90EC725016E000EC821036E81
:102C400001C0C9F6CA6FEA6E01C0E9FF0068026AF6
:102C50000A0E016E000134EC07F0030E0601C76F87
:102C6000C86B0001AAEC10F0F4EC0CF003C008F201
:102C700002C007F201C006F200C005F2050E020113
:102C8000036F75D1160E1C6E02C2C7F623DC02C09C
:102C9000C8F601C0C7F60601C85333E1C751F908A9
:102CA00030E30001F4EC0CF003C0CAF602C0C9F630
:102CB00001C0C8F600C0C7F6020105510601C75F92
:102CC000020106510601C85B020107510601C95BFA
:102CD000020108510601CA5B0DE1C95100080EE26C
:102CE000FF0A08E1C851DB0809E2FF0A03E1C75106
:102CF000D50804E2020E0201036F0601020137D17A
:102D000006010001A8DC0150050A03E0030A37E0D0
:102D10003AD002C2C8F6E1EC06F0020102690001F5
:102D2000F4EC0CF003C008F202C007F201C006F296
:102D300000C005F2060E0201036F048304811DA189
:102D400008D014C2A8F013C2A7F012C2A6F011C294
:102D5000A5F01DA508D01CC2ACF01BC2ABF01AC276
:102D6000AAF019C2A9F01DA308D018C2B0F017C26A
:102D7000AFF016C2AEF015C2ADF0000104D0020EE5
:102D80000201036F00010201F2D0170E1C6EF4EC79
:102D90000CF003C0CAF602C0C9F601C0C8F600C0F4
:102DA000C7F6020105510601C75F0201065106017F
:102DB000C85B020107510601C95B02010851060107
:102DC000CA5B0CE1C9530AE1C8515F0807E303E19C
:102DD000C7515D0803E30201CAD0060102010C538A
:102DE00007E10B5305E10A5303E10951010810E221
:102DF0005E0E05275F0E0623000E07230823FF0E35
:102E00000927D8A00A27D8A00B27D8A00C27AFD015
:102E10000601CA6BC96BC86BC76BCB6BCD6B440E1D
:102E2000CC6FCF6B430ECE6F000129EC0CF001C0CC
:102E300002F20201023D01D09AD0070E036F000199
:102E4000180E1C6E02C2C7F658EC0DF002C0C8F690
:102E500001C0C7F606010250010807E303E1C751AC
:102E6000010803E3020183D00601030EC76F010EC0
:102E7000C86F0001AAEC10F0020104950001F4EC07
:102E80000CF003C008F202C007F201C006F200C055
:102E900005F20201032B6BD0190E1C6E02C2C7F69D
:102EA0006AEC12F002C0C8F601C0C7F60601C853AA
:102EB00037E1C751F90834E30001F4EC0CF003C02A
:102EC000CAF602C0C9F601C0C8F600C0C7F60201C2
:102ED00005510601C75F020106510601C85B0201E8
:102EE00007510601C95B020108510601CA5B0DE1E9
:102EF000C951000812E2FF0A08E1C851DB080DE2DF
:102F0000FF0A03E1C751D50808E20201032B035170
:102F10000C0802E2020E036F0601020128D006012E
:102F200000012BEC13F00150050A03E0030A18E03E
:102F30001BD002C2C8F6E1EC06F0020102690001F2
:102F4000F4EC0CF003C008F202C007F201C006F274
:102F500000C005F2060E0201036F0483000104D0D5
:102F6000020E0201036F0001020101D002010601FD
:102F7000C62B73D50001EBEF35F0E824F76AF7367E
:102F80009B0FF66E2F0EF722000EF86EFB6E0A00F6
:102F9000F550FA6E0800F550F96E722A762AAA2AC0
:102FA000622BFC2B842C8A2D402E982E402E982E9E
:102FB000402E982E000E020104B1010E016E000198
:102FC000F0EF35F0D7EC0CF0DCC111F7DDC112F7F2
:102FD000DEC113F7DFC114F711C700F012C701F00B
:102FE00013C702F014C703F012000601FB51FD03E2
:102FF000F3CF01F0F4CF00F0FE03F3500026FC51B4
:10300000FD03F3500020026E00011200D9CE3BF701
:10301000EFCE3EF7EECE3DF707013B510E01D95DF5
:10302000D8B402D00001F2D7EDCE3CF7ECCE3BF79E
:1030300007013C513E5D16E303E13D513B5D12E269
:103040003B513D5D006E3C513E59036E0050FF0AFE
:10305000220F006E160E035600C001F003C002F0EE
:103060001CD01BD03B513D5D09E13C513E5D06E16A
:10307000210E016E160E026E10D00FD03D513B5D39
:103080003F6F3E513C59406F010E3F5D006E000E98
:103090004059036E00C001F0026E0001E6EF1CF023
:1030A000070E0701486F430E016E48C7EAFFE96E3D
:1030B000EFCF4BF7070E4D6F430E4C6F030E4C25B1
:1030C000E96E000E4D21EA6EEF504B1948C7EAFF3A
:1030D00001C0E9FFEF6E070E486F430E476F030E06
:1030E0004725016E000E4821036EEA6E01C0E9FF1C
:1030F000EFCF4BF7070E4D6F430EE96E4DC7EAFF5A
:10310000EF504B1903C0EAFF01C0E9FFEF6E070E55
:10311000486F430E016E48C7EAFFE96EEFCF4BF7E9
:10312000070E4D6F430E4C6F030E4C25E96E000EDB
:103130004D21EA6EEF504B1948C7EAFF01C0E9FF85
:10314000EF6E070E486F430E476F010E4725016E65
:10315000000E4821036EEA6E01C0E9FFEFCF4BF786
:10316000070E4D6F430E4C6F020E4C25E96E000E9C
:103170004D21EA6EEF504B1903C0EAFF01C0E9FF91
:10318000EF6E070E486F430E476F020E4725016E24
:10319000000E4821036EEA6E01C0E9FFEFCF4BF746
:1031A000070E4D6F430E4C6F010E4C25E96E000E5D
:1031B0004D21EA6EEF504B1903C0EAFF01C0E9FF51
:1031C000EF6E070E486F430E476F010E4725016EE5
:1031D000000E4821036EEA6E01C0E9FFEFCF4BF706
:1031E000070E4D6F430E4C6F020E4C25E96E000E1C
:1031F0004D21EA6EEF504B1903C0EAFF01C0E9FF11
:10320000EF6E43C700F044C701F045C702F046C760
:1032100003F00001120007013BC701F03CC703F0B7
:103220003BC73DF73CC73EF73BC7E9FF3CC7EAFF5A
:10323000ECCF5BF7ED52EFCF5AF700019FEC0EF0A9
:103240003EC7EAFF3DC7E9FF02C0ECFFED5201C0F7
:10325000EFFF020E07013B25016E000E3C21036EBD
:1032600001C03DF73E6F020E3B25E96E000E3C218A
:10327000EA6EECCF5BF7ED52EFCF5AF700019FEC0F
:103280000EF03EC7EAFF3DC7E9FF02C0ECFFED527A
:1032900001C0EFFF040E07013B25016E000E3C212B
:1032A000036E01C03DF73E6F040E3B25E96E000E34
:1032B0003C21EA6EEFCF43F7ECCF44F7ECCF45F774
:1032C000ECCF46F70001ECDE3EC7EAFF3DC7E9FF61
:1032D00000C0EFFF01C0ECFF02C0ECFF03C0ECFF39
:1032E000080E07013B25016E000E3C21036E01C054
:1032F0003DF73E6F080E3B25E96E000E3C21EA6E5D
:10330000EFCF43F7ECCF44F7ECCF45F7ECCF46F7E0
:103310000001C6DE3EC7EAFF3DC7E9FF00C0EFFF80
:1033200001C0ECFF02C0ECFF03C0ECFF0E0E070172
:103330003B25016E000E3C21036E01C03DF73E6F40
:103340000E0E3B25E96E000E3C21EA6EECCF5BF7DA
:10335000ED52EFCF5AF700019FEC0EF03EC7EAFFA7
:103360003DC7E9FF02C0ECFFED5201C0EFFF100EB8
:1033700007013B25016E000E3C21036E01C03DF7A5
:103380003E6F100E3B25E96E000E3C21EA6EECCF3D
:103390005BF7ED52EFCF5AF700019FEC0EF03EC7FE
:1033A000EAFF3DC7E9FF02C0ECFFED5201C0EFFFAD
:1033B000120E07013B25016E000E3C21036E01C079
:1033C0003DF73E6F120E3B25E96E000E3C21EA6E82
:1033D000ECCF5BF7ED52EFCF5AF700019FEC0EF008
:1033E0003EC7EAFF3DC7E9FF02C0ECFFED5201C056
:1033F000EFFF120007013F6B406B416B426B7BCFCD
:103400003EF77ACF3DF73B513C1155E03C5303E189
:103410003B51140803E2036A140E03D03CC703F0C7
:103420003B51436F03C044F7070E5C6F450E5B6F63
:1034300044C75EF743C75DF70001C9EC07F0070119
:1034400043513B5F44513C5B070E5C6F430EE96E9A
:103450005CC7EAFFEFA00AD0450E4325E96E070ED0
:103460004421EA6EEF6A432BD8B4442B070E5C6FFD
:10347000450E5CC75AF7596F435144111BE05AC7B8
:1034800003F059C700F0020E5927D8B05A2B00C0DC
:10349000E9FF03C0EAFFECCF03F0ED52EF503F2706
:1034A00003504023000E41234223020E435F000ECF
:1034B000445BE2D7A8D73EC77BFF3DC77AFF5E6B70
:1034C0005D6B40C75CF73FC75BF741C700F042C781
:1034D00001F0026A036A41513F253F6F425140218A
:1034E000406F02505D21416F03505E21426F415198
:1034F0003F274251402340C703F0031E3F51FF0ABC
:10350000016E03C002F00001120013EC09F0070184
:103510001151010B006E036A0050031004E0020118
:10352000D487070111910201D39BD39DD39FD493DC
:10353000D495D49100011AEC0DF00152FCE0070182
:103540001151060B006E036A0050031003E03A6B42
:10355000396B19D102016451C25D08E16551C35D47
:1035600005E107013A6B396BF7D002016551C35D84
:103570004FE303E1C251645D4BE26451C25D070158
:10358000396F02016551C35907013A6F02016B514E
:1035900007013A5D0DE308E1395102016A5DD8A0E7
:1035A00002D0070105D007016BC23AF76AC239F7AA
:1035B00002017C5107013A5D10E308E13951020133
:1035C0007B5DD8A002D0070108D007017CC23AF782
:1035D0007BC239F70201D4850701160E436F590EDD
:1035E000426F446B65C246F764C245F7D7C247F7DE
:1035F0003AC749F739C748F70001A0EC08F00701BE
:1036000039510201642707013A5102016523A3D011
:103610006451BE5D0701376F02016551BF59070153
:10362000386F0201C251070137253B6F0201C351B8
:10363000070138213C6F0201BC5107013B5D396F26
:103640000201BD5107013C593A6F02016B5107015C
:103650003A5D0DE308E1395102016A5DD8A002D05C
:10366000070105D007016BC23AF76AC239F70201B8
:103670007C5107013A5D10E308E1395102017B5D9D
:10368000D8A002D0070108D007017CC23AF77BC25C
:1036900039F70201D48507013A51385D08E303E1A7
:1036A0003751395D04E23AC738F739C737F7160E94
:1036B000436F590E426F446B65C246F764C245F7CB
:1036C000D7C247F738C749F737C748F70001A0EC1A
:1036D00008F007013751395D376F38513A59386F63
:1036E0003751381120E002016451BE5D006E655112
:1036F000BF59036E0050590F07013B6F160E032090
:103700003C6F436F3BC742F7446BBDC246F7BCC238
:1037100045F7D7C247F738C749F737C748F7000119
:10372000A0EC08F0070139510201642707013A5162
:1037300002016523BF51655D0EE303E1BE51645D87
:103740000AE3BC51BE5D006EBD51BF59036E00500F
:10375000645F0350655B07010201D4A715D06A516D
:103760000701395D05E102016B5107013A5D0BE08C
:1037700002017B510701395D05E102017C5107011E
:103780003A5D01E011810201070139513A1107E167
:103790001151030B006E036A0050031037E03951DA
:1037A00002016A5F07013A5102016B5B070139515F
:1037B0003A1101E011871251010B006E036A0050AB
:1037C000031009E002017D6B5B6B5A6B5F0E596F52
:1037D0005E0E586F07010001F4EC0CF00201585125
:1037E000070100240201CA6F59510701012002019B
:1037F000CB6F5A51070102200201CC6F5B510701C8
:1038000003200201CD6FD38949D007011251020B69
:10381000006E036A0050031014E00201D351010F3F
:10382000070B006EF80ED3150010D36F010E5C5F0E
:10383000000E5D5B5E5B5F5B07013A6B010E396FEB
:103840002ED00201D3A92AD007011251010B006E1C
:10385000036A005003100AE102017D5306E07D0770
:10386000D8905B335A335933583307010001F4ECD5
:103870000CF002015851070100240201CA6F59518E
:10388000070101200201CB6F5A51070102200201FA
:10389000CC6F5B51070103200201CD6F070169C2A4
:1038A00016F768C215F767C218F766C217F75FC246
:1038B0001CF75EC21BF75DC21AF75CC219F763C240
:1038C00020F762C21FF761C21EF760C21DF73F0EEC
:1038D0002215226FF00E2115216F11C722F7286BD8
:1038E000276B3AC701F0026A036A395102015C276B
:1038F00001505D2302505E2303505F2307011151E5
:10390000020B006E036A0050031023E01151100BEC
:10391000006E036A0050031004E1206B1F6B1E6BE6
:103920001D6B02017AA30BD0FF0E07011927D8A047
:103930001A27D8A01B27D8A01C270BD00201010EE4
:103940005C27D8B05D2BD8B45E2BD8B45F2B7A83BC
:1039500007011151010B006E036A0050031003E0D0
:1039600002017A8107010201C951C75D1DE303E12C
:10397000C851C65D19E3BE51C05D07013B6F02012E
:10398000BF51C15907013C6F0201C851C65D006EAD
:10399000C951C759036E005007013B5D236F0350A7
:1039A0003C59246F10D00201C651C85D07013B6F1E
:1039B0000201C751C95907013C6F010E3B5D236FDE
:1039C000000E3C59246F000106EF18F002C014F7F6
:1039D00001C013F70701145306E113513F0803E335
:1039E000146B136B04D0400E135F000E145B145164
:1039F000245D08E303E12351135D04E214C724F7B7
:103A000013C723F7070E3C6F150E3B6F000103DC55
:103A1000140E07013927000E3A230F0E2115500905
:103A2000216F1151020B006E036A0050031017E062
:103A3000040E3927000E3A23020E296F040E2A6F56
:103A4000180E2C6F020E2B6F21390F0B010F006E19
:103A50000038F00B006E0F0E21150010216FA8C06A
:103A600030F7A7C02FF7A6C02EF7A5C02DF771C25B
:103A700034F770C233F76FC232F76EC231F7356B6D
:103A8000060E366F3AC738F739C737F738C75BF7CE
:103A900037C75AF700019FEC0EF002C038F701C09B
:103AA00037F7070E07013C6F2D0E3B6F3CC757F7EA
:103AB000566F596B0C0E586F000111EC0FF001C0DE
:103AC00025F70701251F02C026F7261F160E4B6F8C
:103AD000310E4A6F000192EC07F0020E07013C6FB5
:103AE0006E0E3B6F060E3D6F3AC73FF739C73EF784
:103AF0000001BAEC0FF0070E07013C6F150E3B6F8B
:103B00003CC760F75F6F626B140E616F0001A1EC40
:103B100007F007011151020B006E036A00500310F9
:103B20000EE0070E3C6F290E3B6F3CC760F75F6FDE
:103B3000626B040E616F0001A1EC07F00701160E25
:103B40004B6F450E4A6F0001BAEC07F03AC73CF7DD
:103B500039C73BF74FDC02C014F701C013F7160E4C
:103B600007014B6F550E4A6F000192EC07F0070EEC
:103B700007013C6F130E3B6F3CC760F75F6F626BD2
:103B8000020E616F0001A1EC07F008EC0DF01200CD
:103B90000601CB51010801E26ED0CBC6FBF6000155
:103BA00041EC07F0C7C2C9F2C6C2C8F20201D25145
:103BB000000A000115E0020A13E0010A11E0060AFA
:103BC0000FE0030A10E0010A0EE00C0A29E0050AE2
:103BD00044E0060A47E0010A45E0050A43E042D016
:103BE0007DEC09F047D0110E0701116F010E126F25
:103BF00000018BDC02016A5303E16B5301E10CD03D
:103C00006451C25DD8B402D00001EDD76551C35DE7
:103C1000D8B402D00001E7D7080ED26F00012AD035
:103C2000110E0701116F010E126F00016EDC02010F
:103C30006A5303E16B5301E10CD06451C25DD8B407
:103C400002D00001EDD76551C35DD8B402D00001A8
:103C5000E7D70C0ED26F00010DD00D0E0201D26F0E
:103C6000000108D0140E0701116F126B00014DDC2A
:103C70007DEC09F00601000112000601C66BC65179
:103C80000108D8A05CD3C6C6FBF6000141EC07F0E2
:103C90000601C86BC791C7930201D4B302D0D4A563
:103CA0000FD000011AEC0DF001520BE0100E0601CE
:103CB000C86FC7910201D4A503D00601C7810201D4
:103CC00000010201D3AB18D00001E2EC17F0005064
:103CD0000201CE5D006E0150CF59036E00C0CBF6DD
:103CE0000601CC6FE8BE05D0CC5305E1CB510008EE
:103CF00002E3100EC86F0201D3AD18D00001E2EC50
:103D000017F000500201D05D006E0150D159036ED2
:103D100000C0CBF60601CC6FE8BE05D0CC5305E160
:103D2000CB51000802E3100EC86F0201D2510B08FC
:103D30001AE10001E2EC17F000500201D05D006EC4
:103D40000150D159036E00C0CBF60601CC6FE8BE1E
:103D500005D0CC5309E1CB51000806E3110EC86F22
:103D60000C0E0201D26F06010201D2510408D8A440
:103D700059D10601CA6BC96BCA53D8A452D1C951D3
:103D80000208D8A04ED1CAC6FCF6C9C6FBF6FE6B27
:103D9000140EFD6F0001F5EC17F001C0CBF6100E0C
:103DA00006010124016E000E0220036E0150800FF7
:103DB000E96E020E0320EA6EECCFCCF6ED52EFCFA7
:103DC000CBF6CB5303E1CC5301E12BD1CAC6FCF6B1
:103DD000C9C6FBF6FE6B140EFD6F0001F5EC17F083
:103DE00001C0CBF6100E06010124016E000E022068
:103DF000036E0150800FE96E020E0320EA6EECCFD5
:103E0000CCF6ED52EFCFCBF60201D5510601CB5DDA
:103E1000D8A403D10201D6510601CC5DD8A4FDD0AF
:103E2000000113EC09F0020E0601CC6F6E0ECB6F91
:103E3000CAC6FCF6C9C6FBF6FE6B140EFD6F000188
:103E4000F5EC17F002C0CEF601C0CDF6800E0601EB
:103E50000124016E020E0220036E01C0CFF6D06F66
:103E6000CCC6EAFFCBC6E9FFE26E01C0E1FF0A0E55
:103E7000016EE6CFEEFF012EFCD7CAC6FCF6C9C61E
:103E8000FBF6FE6B140EFD6F0001F5EC17F001C0A0
:103E9000CBF60A0E06010124016E000E0220036E0D
:103EA0000150800FE96E020E0320EA6EECCF67F23C
:103EB000ED52EFCF66F2CAC6FCF6C9C6FBF6FE6B42
:103EC000140EFD6F0001F5EC17F001C0CBF60C0EDF
:103ED00006010124016E000E0220036E0150800FC6
:103EE000E96E020E0320EA6EEFCFCBF6ECCFCCF6F4
:103EF000ECCFCDF6ECCFCEF6010ECB250201606FF4
:103F0000000E0601CC210201616F000E0601CD21D9
:103F10000201626F000E0601CE210201636F6E5135
:103F200070250601CB6F02016F5171210601CC6F24
:103F3000020166510601CB27020167510601CC231D
:103F4000CB5102016819D56F0601CC5102016919E4
:103F5000D66F120E0601C86F060E0201D26FCAC6D6
:103F6000FCF6C9C6FBF60601FE6B140EFD6F0001E0
:103F7000F5EC17F002C003F00150800F016E020E45
:103F8000032201C0CBF6060103C0CCF6010EC92501
:103F9000CD6F000ECA21CE6FFC6FCDC6FBF6FE6B57
:103FA000140EFD6F0001F5EC17F002C003F0015094
:103FB000800F016E020E032201C0CDF6060103C080
:103FC000CEF6020ED880C955CF6F000ECA55D06FFD
:103FD000FC6FCFC6FBF6FE6B140EFD6F0001F5EC17
:103FE00017F002C0D0F601C0CFF6CCC643F7CBC65F
:103FF00042F7010E0701446FCEC646F7CDC645F71E
:10400000476F02C049F701C048F70001A0EC08F073
:104010000201B96BB86B060104D0C92BD8B4CA2B06
:10402000ABD602010601C8530EE0C7A102D0000EB4
:1040300001D0010ECB6FC8C611F7E8CF12F700010F
:1040400085EC1AF006010201D3B96DD0D2510708F0
:1040500067E10001F4EC0CF003C0CEF602C0CDF62F
:1040600001C0CCF600C0CBF60201CA510601005CCB
:10407000006E0201CB5106010158016E0201CC51C4
:1040800006010258026E0201CD5106010358036E6B
:10409000CE6F02C0CDF601C0CCF600C0CBF6E8AEC4
:1040A00001D04BD10201D351070B060818E10601DC
:1040B000C86B0201D3A703D00601C82B0201C6C6F4
:1040C000CBF6000165DDC6C6CBF662DD0601C8533E
:1040D00004E10E0E0201D26F06012FD10201000190
:1040E00013EC09F0100E0701116F020E126F0001A0
:1040F00085EC1AF0F4EC0CF0AC0E06010024020181
:10410000CA6FB90E060101200201CB6F030E060132
:1041100002200201CC6F000E060103200201CD6FC8
:1041200006010BD102010001F4EC0CF003C0CEF645
:1041300002C0CDF601C0CCF600C0CBF60201CA51D8
:104140000601005C006E0201CB5106010158016EB0
:104150000201CC5106010258026E0201CD51060146
:104160000358036ECE6F02C0CDF601C0CCF600C07E
:10417000CBF6E8AE01D0E1D0000113EC09F002016A
:10418000D251050A00010FE0030A1FE0010A34E0E2
:104190000C0A32E0030A41E0010A4FE0030A53E04F
:1041A000060A61E071D0020E0601C86FC7810201E4
:1041B0007D51030809E2040E7D6F5B6B050E5A6F9B
:1041C000F50E596FE00E586F60D002017D51010865
:1041D00006E3120E0601C86FC7810CD00201D3A7F7
:1041E00006D0140E0601C86FC78304D00201020E68
:1041F0000601C86F020149D002017D51040806E39F
:10420000100E0601C86FC78106D00201080ED26FDA
:10421000110E0601C86F020138D002017D51040859
:1042200006E3110E0601C86FC78105D00201140E06
:104230000601C86FC783020128D0140E0601C86F9B
:10424000C783020122D002017D51040806E3100E4B
:104250000601C86FC78105D00201140E0601C86FA0
:10426000C783020112D002017D51040806E3110E3A
:104270000601C86FC78105D00201140E0601C86F80
:10428000C783020102D0000102010601C8534FE0BA
:10429000C7A144D002017D2BD890583759375A37DF
:1042A0005B37C451645D0601C96F0201C551655990
:1042B0000601CA6F02016551C55D10E303E1C451F7
:1042C000645D0CE2BC51BE5D006EBD51BF59036E12
:1042D00000500601C9270350CA2302010601C95133
:1042E00002015C5F0601CA5102015D5B000E5E5B6C
:1042F0005F5B0601C95102016A270601CA5102012A
:104300006B23C5C265F2C4C264F2C8C611F70701C7
:10431000126B000185EC1AF009D00601C8C611F72E
:10432000010E0701126F000185EC1AF00601C7A308
:1043300004D000017DEC09F00601C62BA0D4CA6BA5
:10434000C96BCA53D8A4BDD0C9510208D8A0B9D0EE
:10435000CAC6FCF6C9C6FBF6FE6B140EFD6F000163
:10436000F5EC17F001C0CBF6100E06010124016E2A
:10437000000E0220036E0150800FE96E020E032032
:10438000EA6EECCFCCF6ED52EFCFCBF6CB5303E198
:10439000CC5301E196D00001E2EC17F001C0CCF65D
:1043A00000C0CBF6CAC6FCF6C9C6FBF60601FE6B1A
:1043B000140EFD6F0001F5EC17F002C0CEF601C03F
:1043C000CDF6120E06010124016E000E0220036ECE
:1043D0000150800FE96E020E0320EA6EECCF03F06D
:1043E000ED52EF50CB5F0350CC5BCC51000865E23F
:1043F000FF0A03E1CB511E0860E2CAC6FCF6C9C63B
:10440000FBF6FE6B140EFD6F0001F5EC17F002C019
:1044100003F00150800F016E020E032201C0CBF6A3
:10442000060103C0CCF6010EC925CD6F000ECA21CE
:10443000CE6FFC6FCDC6FBF6FE6B140EFD6F000158
:10444000F5EC17F002C003F00150800F016E020E70
:10445000032201C0CDF6060103C0CEF6020ED880BD
:10446000C955CF6F000ECA55D06FFC6FCFC6FBF693
:10447000FE6B140EFD6F0001F5EC17F002C0D0F6D4
:1044800001C0CFF6CCC643F7CBC642F7010E0701F9
:10449000446FCEC646F7CDC645F7476F02C049F711
:1044A00001C048F70001A0EC08F00201B96BB86B3D
:1044B0000601C951D8B4CA07C907C92BD8B4CA2B39
:1044C00040D70001F7EF35F00601C66BC651090869
:1044D0003DE3C651170DF350C86BC76F0E0EC725CD
:1044E000016E000EC821036E0150D90FE96E000E57
:1044F0000320EA6EEF50050814E0C651170DF35083
:10450000C86BC76F0E0EC725016E000EC821036E63
:104510000150D90FE96E000E0320EA6EEF50040837
:1045200001E112D0C651170DF350C86BC76F0E0EC4
:10453000C725016E000EC821036E0150D90FE96E28
:10454000000E0320EA6EEF50C62BC0D70001FBEF30
:1045500035F00E01D95307E1270E1C6E2C0E1C6E90
:10456000000E016E8CD00101E5832D0E1C6EE5B1AD
:104570000AD02E0E1C6E0001F4EC12F0000E016E3B
:104580000E017DD00101E2C1E4F1E1C1E3F1E4C13A
:104590007BFFE3C17AFF2F0E1C6E060E0601DF6F54
:1045A000CA0EDE6FDFC65CF7E8CF5BF707015E6B14
:1045B000140E5D6F0001C9EC07F0DDC65BF7DCC6C9
:1045C0005AF79FEC0EF002C0DDF601C0DCF6300EAB
:1045D0001C6E0601CB51150805E2FF0A19E1CA510C
:1045E000210816E3060EDF6FCA0EE96EDFC6EAFF8A
:1045F000EFB00ED0CFBF0CD0CEB90AD0CD51040849
:1046000005E2FF0A05E1CC51EE0802E3CEBF03D07C
:10461000310E1C6EFF00CBC6E2F1CAC6E1F1C7C67F
:1046200003F0C6C6DEF6C7C6DFF6060EE16FD60E8D
:10463000C7C6EAFFC6C6E9FFE1C6E2FFE16E060EA5
:10464000016EE6CFEEFF012EFCD7C9C603F0C8C647
:10465000E9FF03C0EAFFEF68DD5108080BE1DC5316
:1046600003E0DC51060806E1C8C6E9FFC9C6EAFF57
:10467000DCC6EFFF0101E591010E016E0E010001A4
:104680000DEF36F00601E4C601F0E5C603F0E4C61E
:10469000E6F6E5C6E7F6E4C6E9FFE5C6EAFFECCFD5
:1046A0005BF7ED52EFCF5AF700019FEC0EF0E7C633
:1046B000EAFFE6C6E9FF02C0ECFFED5201C0EFFFE2
:1046C000020E0601E425016E000EE521036E01C015
:1046D000E6F6E76F020EE425E96E000EE521EA6ECC
:1046E000ECCF5BF7ED52EFCF5AF700019FEC0EF0E5
:1046F000E7C6EAFFE6C6E9FF02C0ECFFED5201C0E3
:10470000EFFF060E0601E425016E000EE521036EA3
:1047100001C0E6F6E76F060EE425E96E000EE5211E
:10472000EA6EECCF5BF7ED52EFCF5AF700019FEC4A
:104730000EF0E7C6EAFFE6C6E9FF02C0ECFFED5265
:1047400001C0EFFF12001AEC0DF00152FCE0160E52
:1047500007014B6F230E4A6F000192EC07F0060130
:10476000E2C6E9FFE3C6EAFFEC6AED52010EEF6E26
:10477000020EE225E96E000EE321EA6E080EEC6EF1
:10478000ED52EF6A040EE225E96E000EE321EA6EB7
:10479000060EEF6E050EE225E96E000EE321EA6ECD
:1047A000040EEF6E080EE225016E000EE321036E8B
:1047B00001C0E4F6E56FE76BD20E03C0EAFF01C06B
:1047C000E9FFE7C6E2FFE16E060E016EE6CFEEFFFF
:1047D000012EFCD70E0EE225E96E000EE321EA6EF3
:1047E000A5C0EFFFA6C0ECFFA7C0ECFFA8C0ECFF80
:1047F000E3C6E5F6E2C6E4F6000144DF120E060168
:10480000E225016E000EE321036E01C0E4F6E56FC0
:10481000E8CF59F701C058F7060E07015A6F5C6BD5
:104820001C0E5B6F000183EC0FF0E3C660F7E2C67D
:104830005FF70701626B1C0E616F0001A1EC07F0CE
:1048400008EC0DF0010E016EACEF24F0000E01013A
:10485000CEB5010E000A000103E0010A5DE086D03A
:10486000060E0601E36FC60EE26FE3C65CF7E8CF03
:104870005BF707015E6B1C0E5D6F0001C9EC07F072
:10488000F4EC12F0060E0601E56FC60EE46F0001AF
:10489000F9DE0601C62D08D0C75306E1CA51060845
:1048A00003E1CB51040803E0010E016E62D0CC2D70
:1048B00032D0CD5330E10001A5510601DE5D0FE19C
:1048C0000001A6510601DF5D0AE10001A7510601C2
:1048D000E05D05E10001A8510601E15D03E0010E84
:1048E000016E47D0D7C6EEF1D6C6EDF1D5C6ECF1D4
:1048F000D4C6EBF1010EEA6EEF0EE96E060EE26E23
:10490000CE0EE16E060E016EE6CFEEFF012EFCD755
:104910000101CE85060100010601CD6B020ECC6FB0
:10492000060EEA6ED80EE96E010EE26EEF0EE16E33
:10493000060E016EE6CFEEFF012EFCD7EEC1E1F6CA
:10494000EDC1E0F6ECC1DFF6EBC1DEF6060EE36F7B
:10495000C60EE26F0001F7D6015205E1000E016EAE
:10496000060107D000010101CE950001010E016E84
:1049700006010001CCEF36F0140E0101E32506011B
:10498000EC6F000E0101E4210601ED6FE451EC250E
:10499000E86FE551ED21E96FE951150809E2FF0AD9
:1049A00003E1E851210804E2220EE85F160EE95BFC
:1049B0007BCFEBF67ACFEAF6E9C67BFFE8C67AFF53
:1049C000E7C63CF7E6C63BF70001FAEC19F002C077
:1049D000E9F601C0E8F6EBC67BFFEAC67AFF0601FE
:1049E000E8C601F0E9C602F000011200060E060159
:1049F000E56FD00EE46FE5C65CF7E8CF5BF7070123
:104A00005E6B140E5D6F0001C9EC07F00601D0511A
:104A1000F00BE46FE56BE451400802E1E55303E07D
:104A2000000E016E6ED0D6511F0B006ED7C603F07C
:104A30000050D71103E0000E016E63D0D0510F0B70
:104A4000E46FE56BE435026EE535036E023603363E
:104A5000FC0E021602C0EAF101010601E56BE46BEF
:104A6000E76BEAC1E6F6000187DF02C0CFF601C0BE
:104A7000CEF607011A6BEAC119F7000128EC12F013
:104A80000601CE51CF1103E0000E016E3AD0060EA2
:104A90000701556FD00E546F0001B0EC0EF0060107
:104AA000C651C7110CE0C6C6E9FFC7C6EAFFE0C69B
:104AB000EFFFE1C6ECFFE2C6ECFFE3C6ECFFC8C6C1
:104AC000E9FFC951EA6EDCC6EFFFDDC6ECFFDEC6CA
:104AD000ECFFDFC6ECFFCAC6E9FFCBC6EAFFD9C6CA
:104AE000EFFFCCC6E9FFCDC6EAFF0101EA5106019E
:104AF000D25D006E000ED35900C0EFFFEC6E010EC8
:104B0000016E000131EF36F0060E0601CF6FCA0EBE
:104B1000CE6FCFC65CF7E8CF5BF707015E6B040E84
:104B20005D6F0001C9EC07F00601CA5108085EE19B
:104B3000CB535CE1E56B140EE46FC9C6E7F6C8C65B
:104B4000E6F6000119DF0150021001E04ED0060127
:104B5000CA6B080ECC27CC51070804E3CD2BCD53EC
:104B600001E1CC2B00011AEC0DF00152FCE0160E15
:104B700007014B6F310E4A6F000192EC07F0C7C678
:104B80003CF7C6C63BF7010E07013D6FC9C63FF7AC
:104B9000C8C63EF70001BAEC0FF0060E0601CF6F53
:104BA000CA0ECE6FCFC660F7E8CF5FF70701626B22
:104BB000040E616F0001A1EC07F0040E0601C85D50
:104BC000CE6F000EC959CF6F07014B694A694D6915
:104BD0004C694F6FCEC64EF70001FAEC07F09BEC24
:104BE00008F00152FCE008EC0DF0060100019BEF1B
:104BF00036F0020E0601F125E96E000EF221EA6E92
:104C0000ECCFFCF6ED52EFCFFBF6FB5305E1FC5386
:104C100003E1000E016E03D3FE0EF66F020EF325C4
:104C2000E96E000EF421EA6EECCFFCF6ED52EFCF08
:104C3000FBF6F3C6E9FFF4C6EAFFECCF03F0ED5252
:104C4000EF50FB270350FC23F1C6E9FFF2C6EAFF51
:104C5000ECCF03F0ED52EF50FB270350FC23020E84
:104C6000F125E96E000EF221EA6EECCF03F0ED5271
:104C7000EF50FB19F76F0350FC19F86FF56BF55106
:104C80000108D8A081D0F5C6FBF6000141EC07F081
:104C90000201D2510D0802E174D023D0D251040890
:104CA00015E1020E0601F125E96E000EF221EA6E11
:104CB000ECCF03F0ED52EF500201D55D05E103505A
:104CC000D65D02E1F5C6F6F65CD00BD00601F751D1
:104CD0000201D55D05E10601F8510201D65D01E052
:104CE00050D0000113EC09F0020E0601F125E96E27
:104CF000000EF221EA6EECCFFCF6ED52EFCFFBF6A0
:104D0000020168510601FB5D3BE1020169510601A8
:104D1000FC5D36E1F1C6E9FFF2C6EAFFECCFFCF636
:104D2000ED52EFCFFBF6020166510601FB5D28E173
:104D3000020167510601FC5D23E1F3C6E9FFF4C6F9
:104D4000EAFFEFCFFBF6ECCFFCF6ECCFFDF6ECCFB5
:104D5000FEF602016E510601FB5D12E102016F5188
:104D60000601FC5D0DE1020170510601FD5D08E1E7
:104D7000020171510601FE5D03E1010E016E4FD289
:104D800002010601F52B7BD7F651FE083AE0F6C684
:104D9000FBF6000141EC07F013EC09F00601F651B7
:104DA000FE082FE0F8C6D6F2F7C6D5F2020EFC6F69
:104DB0006E0EFCC6EAFFE96EF4C6E2FFF3C6E1FF41
:104DC0000A0E016EE6CFEEFF012EFCD7F1C6E9FF19
:104DD000F2C6EAFFECCF67F2ED52EFCF66F2020EB9
:104DE000F125E96E000EF221EA6EECCF69F2ED5288
:104DF000EFCF68F2BDC265F2BCC264F2010E016E73
:104E00000ED20D0EF125E96E000EF221EA6EEFB220
:104E100003D0000E016E03D20201B851B91105E0B2
:104E2000000E016E0601FBD102010601FA6BF96B5F
:104E3000FA53D8A4EAD0F9510208D8A0E6D0FAC6AD
:104E4000FCF6F9C6FBF6FE6B140EFD6F0001F5ECE7
:104E500017F001C0FBF6100E06010124016E000ED2
:104E60000220036E0150800FE96E020E0320EA6EED
:104E7000ECCFFCF6ED52EFCFFBF6FB5303E1FC5316
:104E800001E1C3D0FAC6FCF6F9C6FBF6FE6B140EC0
:104E9000FD6F0001F5EC17F001C0FBF6100E0601E6
:104EA0000124016E000E0220036E0150800FE96E96
:104EB000020E0320EA6EECCFFCF6ED52EFCFFBF6CC
:104EC000020EF125E96E000EF221EA6EECCF03F03E
:104ED000ED52EF50FB5D03E10350FC5D01E091D02A
:104EE000FAC6FCF6F9C6FBF6FE6B140EFD6F000168
:104EF000F5EC17F001C0FBF60A0E06010124016E65
:104F0000000E0220036E0150800FE96E020E032096
:104F1000EA6EECCFFCF6ED52EFCFFBF6F1C6E9FFFF
:104F2000F2C6EAFFECCF03F0ED52EF50FB5D03E178
:104F30000350FC5D01E065D0FAC6FCF6F9C6FBF64D
:104F4000FE6B140EFD6F0001F5EC17F002C0FCF6CD
:104F500001C0FBF6800E06010124E96E020E02205C
:104F6000EA6EEFCFFDF6ECCFFEF6ECCFFFF6ECCF1E
:104F700000F7F3C6E9FFF4C6EAFFEFCF00F0ECCF8D
:104F800001F0ECCF02F0ECCF03F00050FD5D0BE13F
:104F90000150FE5D08E10250FF5D05E1035007018D
:104FA000005D03E006012DD00701FAC6FCF6F9C644
:104FB000FBF60601FE6B140EFD6F0001F5EC17F019
:104FC00001C0FBF6120E06010124016E000E022044
:104FD000036E0150800F016E020E032201C0FBF62A
:104FE00003C0FCF60001E2EC17F0FCC6EAFFFBC6CA
:104FF000E9FF00C0EFFF01C0ECFF000E016E0601EB
:105000000ED1F92BD8B4FA2B13D7F56BF551010853
:10501000D8A003D1F5C6FBF6000141EC07F0020170
:10502000D3B701D0F7D0000113EC09F0020E06014E
:10503000F125E96E000EF221EA6EECCF03F0ED529D
:10504000EF500201685D03E10350695D01E0E2D0C9
:10505000FAC6FCF6F9C6FBF60601FE6B140EFD6FF0
:105060000001F5EC17F002C0FCF601C0FBF6800E63
:1050700006010124016E020E0220036E01C0FDF63E
:10508000FE6FEA6E01C0E9FFF4C6E2FFF3C6E1FF7E
:105090000A0E016EE6CFEEFF012EFCD7FAC6FCF633
:1050A000F9C6FBF6FE6B140EFD6F0001F5EC17F070
:1050B00001C0FBF60A0E06010124016E000E02205B
:1050C000036E0150800F016E020E032203C0FCF636
:1050D000F1C6E9FFF2C6EAFFECCF03F0ED52EFCFE5
:1050E000FDF6FCC6EAFF01C0E9FF03C0ECFFED528C
:1050F000FDC6EFFFFAC6FCF6F9C6FBF6FE6B140E12
:10510000FD6F0001F5EC17F001C0FBF60C0E060177
:105110000124016E000E0220036E0150800F016E0B
:10512000020E032201C0FBF603C0FCF6040EF125BB
:10513000E96E000EF221EA6EEFCF00F0ECCF01F045
:10514000ECCF02F0ECCF03F0FCC6EAFFFBC6E9FFB0
:1051500000C0EFFF01C0ECFF02C0ECFF03C0ECFF9A
:10516000FAC6FCF6F9C6FBF6FE6B140EFD6F0001E5
:10517000F5EC17F001C0FBF6100E06010124016EDC
:10518000000E0220036E0150800F016E020E0322FA
:1051900003C0FCF6020EF125E96E000EF221EA6E64
:1051A000ECCF03F0ED52EFCFFDF6FCC6EAFF01C0F5
:1051B000E9FF03C0ECFFED52FDC6EFFFFAC6FCF6B7
:1051C000F9C6FBF6FE6B140EFD6F0001F5EC17F04F
:1051D00001C0FBF6120E06010124016E000E022032
:1051E000036E0150800F016E020E032201C0FBF618
:1051F00003C0FCF60001E2EC17F0FCC6EAFFFBC6B8
:10520000E9FF00C0EFFF01C0ECFF000E016E0601D8
:1052100006D002010601F52BF9D6000E016E000141
:1052200016EF34F00701166B0C0E156F00014AECF7
:1052300012F0F7EC07F001C011F707011151F00B64
:10524000156F166B16331533163315333F0E1617BD
:10525000140E155D116F115305E1180E016E020E4B
:10526000026E70D05C6B5B6B5E6B070E5D6F000156
:10527000C9EC07F0070111511107000AD8B45ED03C
:105280000001F7EC07F001C012F70701125301E12A
:1052900055D0122D01D0EFD71251020835E111512E
:1052A000020801E34BD0146B136B0001F7EC07F01D
:1052B00001C012F70701125104080AE10001F7ECDE
:1052C00007F001C014F7F7EC07F001C013F707016E
:1052D0001451020805E303E11351170801E32ED02E
:1052E000145104080BE2FF0A03E11351B40806E26B
:1052F000B40E016E050E026E25D005D013C701F065
:1053000014C702F01FD019D01151010801E316D0C3
:105310000001F7EC07F001C012F707011251115D0F
:1053200001E20CD05C6B5B6B5E6B12C75DF700013A
:10533000C9EC07F007011251115F9DD7180E016EDD
:10534000020E026E000112000D0E0601F125E96E3B
:10535000000EF221EA6EEFCF03F7080EF125E96E99
:10536000000EF221EA6EEFCF04F7ECCF05F7ECCF99
:1053700006F7ECCF07F7040EF125E96E000EF221D7
:10538000EA6EEFCF08F7ECCF09F7ECCF0AF7ECCFD6
:105390000BF7F80E0201D315D36FD3B917D0000164
:1053A000F4EC0CF0AC0E070100240201CA6FB90E38
:1053B000070101200201CB6F030E07010220020149
:1053C000CC6F000E070103200201CD6FD251040AF9
:1053D000000103E0010A5DE00BD107010351040B5A
:1053E000006E036A0050031006E000017DEC09F036
:1053F0006FEF33F007010351100B006E036A00508A
:10540000031013E007C75FF206C75EF205C75DF23F
:1054100004C75CF2040E116F126B000185EC1AF0E8
:105420007DEC09F06FEF33F007010351020B006EC2
:10543000036A0050031026E0010E08250201606F88
:10544000000E070109210201616F000E07010A2108
:105450000201626F000E07010B210201636F000160
:10546000E1DE02C07CF201C07BF2120E0701116F77
:10547000010E126F000185EC1AF0060E0201D26FC8
:1054800005D0070100017DEC09F0020100016FEF7A
:1054900033F007010351040B006E036A0050031040
:1054A00004E000016FEF33F007010351100B006EB1
:1054B000036A0050031036E002015C510701045DED
:1054C0000FE102015D510701055D0AE102015E5134
:1054D0000701065D05E102015F510701075D22E05A
:1054E0005FC20BF75EC20AF75DC209F75CC208F73C
:1054F00007C75FF206C75EF205C75DF204C75CF23C
:10550000040E116F010E126F000185EC1AF00BC72B
:105510005FF20AC75EF209C75DF208C75CF26FEF7F
:1055200033F007010351020B006E036A00500310B1
:105530005CE0010E08250201606F000E07010921E1
:105540000201616F000E07010A210201626F000E65
:1055500007010B210201636F0E0E0601F125E96EB2
:10556000000EF221EA6EECCF6BF2ED52EFCF6AF251
:10557000000158DE02C07CF201C07BF2070103513A
:10558000100B006E036A0050031024E0100E116F20
:10559000010E126F000185EC1AF0070E0201D26FA6
:1055A0000001F4EC0CF0AC0E070100240201CA6FFC
:1055B000B90E070101200201CB6F030E0701022083
:1055C0000201CC6F000E070103200201CD6FD399B9
:1055D0000BD00701120E116F010E126F000185EC46
:1055E0001AF0060E0201D26F070100016FEF33F0CF
:1055F000F4C60DF7F3C60CF707010351010B006E5B
:10560000036A0050031003E00C2BD8B40D2B035198
:10561000020B006E036A0050031003E00C2BD8B499
:105620000D2B0201C951C75D1DE303E1C851C65DE1
:1056300019E3BE51C05D0701116F0201BF51C1598D
:105640000701126F0201C851C65D006EC951C759EA
:10565000036E00500701115D016F03501259026F74
:1056600010D00201C651C85D0701116F0201C75178
:10567000C9590701126F010E115D016F000E125919
:10568000026F020160510701085D006E0201615165
:1056900007010959016E0201625107010A59026EA0
:1056A0000201635107010B59E8CFFEF602C0FDF677
:1056B00001C0FCF600C0FBF6FCC600F7FBC6FFF617
:1056C0000E910C510D11D8B4ABD001510211D8B4C8
:1056D000A4D00601FEBF14D0FE5312E1FD5310E129
:1056E000FC510701025DD8B002D0060109D005E1E6
:1056F00001510601FB5D04E207010E815BD006014A
:105700000CC700F00DC701F0026A036A0050FB25C8
:105710000701116F0D510601FC210701126F0250A4
:105720000601FD210701136F03500601FE21070149
:10573000146FE8BE3FD0145307E1135305E1125331
:1057400003E11151000836E20C51015D006E0D516C
:105750000259036E005003C001F0026A036A01AEF1
:1057600002D0020603060601FEAF03D003AE20D02E
:1057700004D003AE02D007011DD0FE51035CD8B0A7
:1057800002D0070117D014E1FD51025CD8B002D05D
:10579000070110D00DE1FC51015CD8B002D0070127
:1057A00009D006E1FB51005CD8B002D0070102D05D
:1057B00007010E8101C700F002C701F0026A036A07
:1057C0000601FEAF03D003AE12D002D003BE26D036
:1057D000FE51035C23E30BE1FD51025C1FE307E193
:1057E000FC51015C1BE303E10050FB5D17E2070184
:1057F0000C510601FF250701116F0D510021126F99
:10580000E8AE02D006010AD0125306E11151000899
:10581000D8A002D0060102D00E81060123D00701D4
:105820000601FB530AE1FC5308E1FD5306E1FE5378
:1058300004E107010E8115D00601FEBF13D0FE530F
:1058400011E1FD530FE1FC510701025DD8B002D018
:10585000060108D005E101510601FB5D03E20701E5
:105860000E81060107010EB113D00351040B006E27
:10587000036A0050031008E1100E116F010E126F41
:10588000000185EC1AF0070100016FEF33F007010A
:105890000351060B006E036A0050031006E000017E
:1058A0007DEC09F06FEF33F007010351100B006E30
:1058B000036A0050031004E100016FEF33F00701A9
:1058C0000201D251060A00010EE0010A46E00F0A69
:1058D00044E0010A42E0020A40E0010A3EE0060A12
:1058E000D8B4F6D21CD302015C510701045D0FE16C
:1058F00002015D510701055D0AE102015E510701E8
:10590000065D05E102015F510701075D22E05FC20C
:105910000BF75EC20AF75DC209F75CC208F707C75A
:105920005FF206C75EF205C75DF204C75CF2040EC3
:10593000116F010E126F000185EC1AF00BC75FF2B8
:105940000AC75EF209C75DF208C75CF26FEF33F079
:105950000701070E0201D26F000102016451C25D0E
:105960000601F96F02016551C3590601FA6FFAAFDA
:105970000CD00201BC51BE5D006EBD51BF59036E1B
:1059800000500601F9270350FA23026A036AF9510D
:1059900002015C250601F56FFA5102015D21060145
:1059A000F66F025002015E210601F76F03500201FB
:1059B0005F210601F86FF5510701045D006E0601D5
:1059C000F65107010559016E0601F7510701065905
:1059D000026E0601F85107010759E8CFF8F602C038
:1059E000F7F601C0F6F600C0F5F60601F8BF35D0AF
:1059F000F85307E1F75305E1F65303E1F5510008C9
:105A00002CE202017AA113D00601F52D01D002D0BB
:105A100002010DD0F653D8B402D0020108D0F753DA
:105A2000D8B402D0020103D0F8530CE00201100EEA
:105A30000701116F126B000185EC1AF06FEF33F064
:105A40000BD00601FF0E07010427D8A00527D8A018
:105A50000627D8A00727000106010201C451645D92
:105A6000006EC5516559036E005003C001F0026A13
:105A7000036A01AE02D00206030600505C5D006EB0
:105A800001505D59016E02505E59026E03505F591C
:105A9000E8CFF8F602C0F7F601C0F6F600C0F5F65A
:105AA0006551C55D13E303E1C451645D0FE2BC5170
:105AB000BE5D006EBD51BF59036E00500601F55F1B
:105AC0000350F65B000EF75BF85B02010601F5512F
:105AD0000701045D0601F56FF6510701055906013E
