:0400000010EF69F0A4
:08000800046ED8CF05F0E0CF33
:1000100006F00001E9CF0CF0EACF07F0E1CF08F0DD
:10002000E2CF09F0D9CF0AF0DACF0BF0F3CF12F01C
:10003000F4CF13F0FACF14F0F5CF15F0F6CF16F099
:10004000F7CF17F0F8CF18F0FBCF19F000C00EF083
:1000500001C00FF002C010F003C011F0F2AA34EF9B
:1000600000F0F2B4ADEF00F09DAC3AEF00F09EBCB2
:100070000CEF01F09DAA40EF00F09EBAB8EF00F03F
:100080009DA646EF00F09EB631EF02F00EC000F0E4
:100090000FC001F010C002F011C003F00CC0E9FF66
:1000A00007C0EAFF078E08C0E1FF09C0E2FF0AC0EF
:1000B000D9FF0BC0DAFF12C0F3FF13C0F4FF14C066
:1000C000FAFF15C0F5FF16C0F6FF17C0F7FF18C0FE
:1000D000F8FF19C0FBFF045006C0E0FF05C0D8FFC1
:1000E0001000F76AF60FF66E000EF722000EF86E9B
:1000F0000900F550120050434D5F434F4E54524F8C
:100100004C4C45520000F76A1A0FF66E010EF722AA
:10011000000EF86E0900F55012000000F76A300F6B
:10012000F66E010EF722000EF86E0900F55012006F
:100130004E4E30303030303030300000F2A40AD033
:10014000010E0101D727D8B0D82BD8B4D92BD8B4F9
:10015000DA2BF2940001AEEF00F0F0D746EF00F09A
:1001600050434D5F434F4E54524F4C4C455200004C
:100170009EAA3ED004009EAAFDD7AECF2CF3030169
:100180002B513A0833E32C51030A000107E00E0A11
:1001900005E0070A03E0F50A07E013D03C0E03016F
:1001A0002B6F0101CE8B22D003012B6B036A2B51E5
:1001B000EF0FE96E020E0320EA6EEF6A010116D01E
:1001C0000001036A03012B51EF0FE96E020E0320B9
:1001D000EA6E2CC3EFFF010E2B27036A2B51EF0FA2
:1001E000E96E020E0320EA6EEF6A01010001C0D73A
:1001F0009E9A46EF00F02F31614D2564520D0000AC
:100200002F313F360D002F313F340D002F313F3855
:100210000D002F313F300D009E9C46EF00F00D0089
:100220004E4F20524553504F4E53450A0000494E01
:1002300056414C4944204348414E4E454C0A00002B
:10024000494E56414C494420504152414D45544538
:10025000520A0000494E56414C49442050415241F7
:100260004D455445520A0000494E56414C494420E0
:10027000504152414D455445520A0000494E5641A5
:100280004C494420504152414D455445520A0000CA
:10029000494E56414C494420504152414D455445E8
:1002A000520A0000535543434553530A0000494E38
:1002B00056414C494420504152414D455445520A03
:1002C0000000494E56414C494420504152414D4551
:1002D0005445520A0000494E56414C494420504171
:1002E00052414D455445520A0000494E56414C4931
:1002F0004420504152414D455445520A0000494E58
:1003000056414C494420504152414D455445520AB2
:100310000000535543434553530A0000494E56418C
:100320004C494420504152414D455445520A000029
:10033000494E56414C494420504152414D45544547
:10034000520A0000535543434553530A0000535586
:1003500043434553530A0000254C752C2025662045
:100360007365636F6E64732061676F0025732C2063
:100370002566207365636F6E64732061676F00008C
:100380004D434C52205265626F6F740025732C20D0
:100390002566207365636F6E64732061676F00006C
:1003A000506F776572206F6E205265626F6F7400B8
:1003B00025732C202566207365636F6E647320613E
:1003C000676F000042726F776E6F757420526562BE
:1003D0006F6F740025732C202566207365636F6E24
:1003E00064732061676F0000536F6674205265620A
:1003F0006F6F7400425546464552204F5645525243
:10040000554E0A00535543434553530A0000504686
:10041000532050434D205265763A203230313730E8
:100420003632302D303120636F70797269676874AD
:10043000204A48550000494E56414C494420434FFC
:100440004D4D414E440A000025303375303037346D
:100450003030323D3F00494F3A256C75257300001E
:100460000D009E9646EF00F0CC0E926EC00E936E7D
:10047000DC0E946EFC0E956E9690969296949696DF
:100480009698969A7F0E976EEF0E986EEFEF6AF041
:10049000896A8A6A8B6A8C6A8D6A800E8E6E100EEB
:1004A0008F6EF1EF6AF0D1C601F0D0C600F00066A1
:1004B000012A0900F5CFEEFF002EFBD7012EF9D758
:1004C000F86A1200F250036EF29EA6840F01550ED8
:1004D000A76EAA0EA76EA68200000350F2120001BA
:1004E0001200F6503F0B006EC00EF6160A00ACC6A6
:1004F00001F000660BD0F650010F08E1000EF72066
:10050000030B04E1A6880900DDDF0A00006607D0BE
:10051000EECFF5FF015204E00F00010603D0000604
:100520000B000C003F0EF6143F0AE3E1CBDF01663F
:10053000E0D7F86A1200010EF86EF76AF66A030E49
:10054000EA6E2D0EE96E300E0601AC6F0001C9DFB8
:10055000D5EF02F0010EF86EF76AF66A030EEA6E46
:100560002D0EE96E0601D16B300ED06F00019BDFBE
:10057000D9EF02F00601456B446B060E476F440E3F
:10058000466F010EF86EF76AF66A47C6EAFF46C67E
:10059000E9FFD16B020ED06F000185DF0601443DFB
:1005A00006D0453D04D00001C6D703D006010001A6
:1005B000D1D7F4EF6AF00301605111E1C69E9E9617
:1005C000A196CBC6C9FF020EC6BE09D09EA6FED715
:1005D000A1B605D09EA6FCD7000EC5BC010E016ECB
:1005E00000011200C69CC586C5B6FED700B0C59AEC
:1005F00000A0C58AC588C5B8FED7C9CF01F01200D2
:10060000030E0601C05F13E3060EEA6EC00EE96E2C
:10061000FC0EEF16D890EF32EF32EF5008E0060EE6
:10062000006E002EFED700D00400EF2EF8D7000198
:100630001200C7B809D0C7B605D0C7B403D0C5509B
:100640001F0B02E0020E04D0C580C5B0FED7000E1D
:100650000301606FA00E0601CB6F0001ACDF44C642
:10066000CBF6A9DFC7B805D0C7B403D0C5501F0B60
:1006700002E0020E04D0C582C5B2FED7000E03010F
:10068000606FA10E0601CB6F000195DF006AAADF43
:1006900001C045F6C584C5B4FED70400020E0601AC
:1006A000466FF90EC06F0001ABDF0601462FF9D788
:1006B00045C601F000011200060EEA6ECB0EE96E8F
:1006C000EF5011E0080E016EBF0E006E0400002E08
:1006D000FDD7012EF9D7190E006E002EFED70000AF
:1006E0000400EF2EEFD712000601446B036A445159
:1006F000006EE8BE0306016E03BE05D003524EE154
:1007000001507F084BE3C7B809D0C7B605D0C7B4BE
:1007100003D0C5501F0B02E0020E04D0C580C5B047
:10072000FED7000E0301606FA00E0601CB6F000123
:1007300042DF44C6CBF63FDF0601456B036A4551F5
:10074000006EE8BE0306016E03BE05D0035212E13F
:10075000015007080FE345514425036A610FE96E14
:10076000030E0320EA6EEFCFCBF6000124DF060173
:10077000452BE4D7C584C5B4FED7140ECB6F00015A
:100780009BDF036A06014451006EE8BE0306080FB2
:10079000016E000E032201C044F6A8D7000144EF09
:1007A00004F0C7B809D0C7B605D0C7B403D0C55048
:1007B0001F0B02E0020E04D0C580C5B0FED7000EAC
:1007C0000301606FA00E0601CB6F0001F4DE06018D
:1007D000CB6B0001F0DEC7B805D0C7B403D0C5505D
:1007E0001F0B02E0020E04D0C582C5B2FED7000E78
:1007F0000301606FA10E0601CB6F0001DCDE060174
:10080000446B446B036A4451006EE8BE0306016EFC
:1008100003BE05D0035213E101507E0810E3036AC2
:100820004451610FE96E030E0320EA6E010E006E63
:100830000001D8DE01C0EFFF0601442BE3D7036AB5
:100840004451610FE96E030E0320EA6E006A000155
:10085000C9DE01C0EFFFC584C5B4FED70400020E97
:100860000601456FF90EC06F0001CADE0601452F73
:10087000F9D7000146EF04F00601446B0001D9DE10
:100880000150950802E030D701D08BD7F6EF6AF01F
:100890000201035303E1010E036F0491000156EFBF
:1008A00004F0D18D0601446B0001F2D7D26B200E0B
:1008B000D36F300ED46F400ED56F500ED66F600ED2
:1008C000D76FC7B809D0C7B605D0C7B403D0C550D5
:1008D0001F0B02E0020E04D0C580C5B0FED7000E8B
:1008E0000301606FA00E0601CB6F000164DEFA0EFB
:1008F0000601CB6F00015FDEC7B805D0C7B403D0D7
:10090000C5501F0B02E0020E04D0C582C5B2FED74F
:10091000000E0301606FA10E0601CB6F00014BDEDC
:100920000601B26BB26B036AB251006EE8BE0306F9
:10093000016E03BE05D0035216E10150040813E313
:10094000036AB251D20F016E000E032201C0E9FF0B
:1009500003C0EAFF010E006E000144DE01C0EFFF9C
:100960000601B22BE0D7036AB251D20F016E000E1E
:10097000032201C0E9FF03C0EAFF006A000132DE82
:1009800001C0EFFFC584C5B4FED7C00EA56FA80E89
:10099000A66F020EA76FC80EA86FC00EAD6FA80E8F
:1009A000AE6F020EAF6F010EB06FA969AA69AB6995
:1009B000AC6BF8EF6AF0C150C00B1309C16EC050A8
:1009C000C00B3F09C06EC08EC280C28EC282C2B24E
:1009D000FED7C29E9D8C06EF6BF0030E0601AB6F37
:1009E000E10EAA6F010EF86E800EF76EF66AABC6C6
:1009F000EAFFAAC6E9FFF20EAC6F000172DD120039
:100A0000030E0601456FE10E446F010EF86E800E75
:100A1000F76EF66A45C6EAFF44C6E9FFD16BF20EEF
:100A2000D06F000140DD34EF05F0F2CF44F6F29EC6
:100A3000010EF86E800EF76EF66A0900F550080098
:100A4000F5CF03F0F86A060144BFF28E446F03C08D
:100A500045F6455303E14451010804E20001BDDFBE
:100A600003D006010001CCD708EF6BF09D8A899A6C
:100A70008B808F888E8E0AEF6BF0D76AD66AF194DE
:100A8000F294F28A870ED56E0CEF6BF00701176BAC
:100A900017510E0844E3D8900101D23107011C6FB1
:100AA0000101D13107011B6F0101D03107011A6F1C
:100AB0000101CF310701196F0101CF51010B006E08
:100AC000016A026A036A000ED880005407011D6F94
:100AD000000E01541E6F000E02541F6F000E0354CF
:100AE000206F1D51010B006E016A026A2051D00B6C
:100AF000036E005019190101CF6F015007011A1937
:100B00000101D06F025007011B190101D16F035081
:100B100007011C190101D26F0701172BB9D7010179
:100B2000CFC101F0D0C102F000011200D2C161F6C4
:100B3000D1C160F6D0C15FF6CFC15EF606015A534F
:100B40000BE15B5309E15C5307E15D5305E15D6B2C
:100B50005C6B5B6B010E5A6F5DC6D2F15CC6D1F166
:100B60005BC6D0F15AC6CFF1626B62510F0805E344
:100B700000018CDF0601622BF8D75EC600F05FC66D
:100B800001F060C602F061C603F000011200C2CF9E
:100B900053F6C0CF54F6D5CF55F6D6CF57F6D7CFAC
:100BA00056F6010EC26E3F0EC06E880ED56E06015F
:100BB000446B4E6B4D6B4C6B4B6B4A6B496B00013E
:100BC00065DF0601526B516B02C050F601C04FF653
:100BD000D76AD66AC2820400C2B2FED7D6CF47F621
:100BE000D7CF48F6000152DF02C046F601C045F6F5
:100BF000060147514B2748514C23000E4D234E23ED
:100C00004E530DE14D515E0819E2FF0A08E14C51C7
:100C10005D0814E2FF0A03E14B510F080FE20001E7
:100C200035DF015006014F1B0250501B00012EDF23
:100C300001500601511B0250521B37D04751495DEC
:100C400004E148514A5D01E1C3D74751495D006E57
:100C500048514A59036E00504525586F03504621AC
:100C6000596F5D6B5C6B5B6F58C65AF600015EDFB7
:100C700048C64AF647C649F6D89006014F3750375E
:100C800051375237000102DF02C059F601C058F651
:100C900006010150800B006E036A0050031001E052
:100CA0004F81442B01E101D093D753C6C2FF54C6F4
:100CB000C0FF56C6D7FF57C6D6FF55C6D5FF4FC68D
:100CC00000F050C601F051C602F052C603F0000118
:100CD000FCEF0AF060C7F3FFF3CF61FF120045C6D7
:100CE000B4FE46C6F3FF47C6F4FFF250C00B060140
:100CF000486F3F0EF216F3CFB6FE0000F4CFB7FEFA
:100D00004851F2120E018AB1FED700011200FC0E0A
:100D100092160E01FE8BFDA1FED70101E56BE58168
:100D2000E26BE16B0E01E96BE86B210EEC6F160EC6
:100D3000ED6FEB6F210EEA6F160EE56F220EE46F7A
:100D4000160EE36F220EE26F0701606B0001C2DF37
:100D50000D0E0E01A06F0000320EA26F0000120EE9
:100D6000A46F0000400EA36F0000120EA66F0000DB
:100D70000C0EA76F0000EE0EAA6F0000050EAB6F01
:100D80000000D2C084FE0000D3C085FE0000D4C0A5
:100D900082FE0000D5C083FE0000D6C080FE0000A9
:100DA000D7C081FE0000100E0601456F010E476F8F
:100DB000100E466F000193DF140E0601456F340ECE
:100DC000476F720E466F00018ADF0601456B476B65
:100DD000466B000184DFD28413EF0BF00601CA5189
:100DE000090801E23BD0CA51170DF350CC6BCB6F11
:100DF0000C0ECB25016E000ECC21036E0150D90FD5
:100E0000E96E000E0320EA6EEC6AED52EF6ACA51F9
:100E1000170DF350CC6BCB6FD90ECB25E96E000EBE
:100E2000CC21EA6EEE52EE52EC6AED52EF6AED52D0
:100E3000EF6AED52EF6ACA51170DF350CC6BCB6FCE
:100E40000E0ECB25016E000ECC21036E0150D90F82
:100E5000E96E000E0320EA6E040EEF6E0001120030
:100E60000601446B4451090807E344C6CAF6000171
:100E7000B5DF0601442BF6D70101FA83000114EF18
:100E80000BF0016603D0026602D007D0022A00C030
:100E9000EEFF012EFCD7022EFAD712000601FD51FB
:100EA00002017F5D01E14CD07F51FE081EE07F51C1
:100EB0001C0DF350036A200F016E020E032201C0C5
:100EC00000F7070103C001F7020E036FBC0E03C059
:100ED000EAFF01C0E9FF03C7E2FFE16E1C0E016EED
:100EE000E6CFEEFF012EFCD70201FDC67FF2060120
:100EF000FD51FE0803E1020123D00601020E0701A5
:100F0000016FBC0E006F0601FD511C0DF350036A0A
:100F1000200F016E020E032201C002F7070103C079
:100F200003F701C7EAFF00C7E9FF03C0E2FF01C002
:100F3000E1FF1C0E016EE6CFEEFF012EFCD7020191
:100F400000011200E3CE4FF7E2CE4EF74DC7E3FEAD
:100F50004CC7E2FE07014EC701F04FC702F0000187
:100F60001200070164C703F06351D8B46407630734
:100F700003100EE062C703F06151612BD8B4622BFD
:100F8000E96E03C0EAFFEFCFF3FFF3CF61FFEAD7CB
:100F9000000112007BCF4FF77ACF4EF74DC77BFF92
:100FA0004CC77AFF07014EC701F04FC702F000019E
:100FB000120060C762F75FC761F707015D515E11FC
:100FC00015E062C703F06151D8B4620761070310EE
:100FD0000CE05EC703F05D515D2BD8B45E2BE96E6B
:100FE00003C0EAFF61CFEFFFECD70BD062C703F07D
:100FF0006151D8B462076107031003E061CF63F762
:10100000F5D75FC701F060C702F000011200615020
:10101000016E12000701569156934C3D07D04D3D8D
:1010200005D05681E3CE4DF7E2CE4CF74E3D07D0CA
:101030004F3D05D056837BCF4FF77ACF4EF75153B4
:1010400031E1505101082EE37BCF53F77ACF52F7AD
:10105000E3CE55F7E2CE54F74FC77BFF4EC77AFF7A
:101060004DC7E3FE4CC7E2FE51C703F05051D8B460
:1010700051075007031009E00001C9DF01C057F70D
:1010800001C060F727DE0701EFD756B304D053C77E
:101090007BFF52C77AFF56B104D055C7E3FE54C751
:1010A000E2FE57D056A10AD050514C25546F5151F1
:1010B0004D21556F55C7E3FE54C7E2FE010E4E5D4C
:1010C000006E000E4F59036E0050502703505123FD
:1010D000D2BAFED74FC7F1FE4EC7F0FE4DC7F5FEA0
:1010E0004CC7F4FE4F51160810E303E14E5121089E
:1010F0000CE35151150809E2FF0A03E150512108A0
:1011000004E2220E505F160E515B51C7F3FE50C72A
:10111000F2FED298D28AD2BAFED756A31AD0502B5A
:10112000D8B4512B4F51160810E303E14E5121085A
:101130000CE35151150809E2FF0A03E1505121085F
:1011400004E2220E505F160E515B51C77BFF50C761
:101150007AFF00011200000ED2AA010E016E1200E9
:1011600007014951010A000103E0010A3AE06AD08F
:1011700007014651010A000103E0010A1AE030D0DC
:1011800045C7EAFF44C7E9FF48C7E2FF47C7E1FF99
:101190004BC702F04AC701F0015202E0022A02D016
:1011A000025206E0E6CFEEFF012EFCD7022EFAD760
:1011B00017D00701443D03D0453D01D007D045C7B6
:1011C0004DF744C74CF70001BDDE070148C762F781
:1011D00047C761F74BC764F74AC763F70001C1DE31
:1011E00031D007014651010A000103E0010A19E06C
:1011F00028D00701473D03D0483D01D007D048C75C
:101200004DF747C74CF70001C5DE070145C75EF73C
:1012100044C75DF74BC760F74AC75FF70001C9DEF7
:1012200010D045C74DF744C74CF748C74FF747C7DD
:101230004EF74BC751F74AC750F7ECDE8CDF01522F
:10124000FDE000D0120002017F51D85D01E163D0C2
:10125000D851FE083DE0D8511C0DF35007013E6BFC
:101260003D6F200E3D25E96E020E3E21EA6EECCF69
:1012700040F7ED52EFCF3FF7270E3F5F000E405B88
:101280000201D8511C0DF3500701426B416F1B0E38
:101290004125016E000E4221036E0150200FE96EC0
:1012A000020E0320EA6EEFCF46F7020E436F580E90
:1012B000426F40C745F73FC744F743C748F7476FFA
:1012C000010E496F4B6B270E4A6F000149DF020187
:1012D0007FC2D8F2020E07013E6F580E3D6F270EF7
:1012E0000201BC5D07013F6F000E0201BD590701FD
:1012F000406F3EC745F73DC744F7010E466F40C7F4
:1013000048F73FC747F7D7C249F74B6B270E4A6FDD
:10131000000126DF02010001120095DF69C2D6F24A
:1013200068C2D5F2BDC2C3F2BCC2C2F2BDC2C5F230
:10133000BCC2C4F2BFC2C7F2BEC2C6F2BFC2C9F2CB
:10134000BEC2C8F20201D3A702D0040E01D00D0E16
:10135000D26FF80ED315D36FD399D39BD39DD39F60
:10136000D491D493D495D497D4897A917A937A9757
:101370007A99BDC265F2BCC264F2020E0701146F15
:101380005C0E136F016E14C703F0156F14C716F7C8
:10139000000146EC05F016C7EAFF15C7E9FF02C0D9
:1013A000ECFFED5201C0EFFF020E0701146F5C0E5F
:1013B000136F020E1325016E000E1421036E01C07F
:1013C00015F7166F000146EC05F016C7EAFF15C7C2
:1013D000E9FF02C0ECFFED5201C0EFFF02017969A5
:1013E00078696B6B010E6A6F000112001C0E06011A
:1013F0004E6F140E4D6F020E506F800E4F6F50C621
:10140000EAFFE96E006A026A3C0E016E000139DDF6
:101410000601456B446B44510108D8A0B3D044C6C3
:10142000FDF600013BDD06014451060DF350506B03
:101430004F6F010E4F25016E000E5021036E0150BB
:10144000990FE96E000E0320EA6EEFCF4CF644517F
:10145000060DF350506B4F6F020E4F25016E000EBC
:101460005021036E0150990FE96E000E0320EA6EC1
:10147000ECCF47F6ED52EFCF46F64451060DF35050
:10148000506B4F6F040E4F25016E000E5021036EFE
:101490000150990FE96E000E0320EA6EECCF49F679
:1014A000ED52EFCF48F64C51000A000101E027D081
:1014B0004EC64BF64DC64AF6270E060146254F6F1F
:1014C000000E4721506F010E4F27000E5023485148
:1014D0004F2749515023010E4F25016E000E502118
:1014E000036E01504D2703504E234E511E0805E256
:1014F000FF0AFBE14D51FC08F8E303D00001FFD7E0
:1015000006014CC6D7F2270E4A250201BC6F000E19
:1015100006014B210201BD6F060146510201BC25A7
:1015200006014F6F47510201BD210601506F010EA8
:101530004F250201BE6F000E060150210201BF6F50
:10154000060148510201BE25C06F06014951020142
:10155000BF21C16F0D0ED26FD397000174DE06015B
:101560004451060DF350506B4F6F990E4F25E96EA5
:10157000000E5021EA6EEFCF7EF20001CEDE0601B2
:10158000442B49D7000115EF0BF00101CEB70BD06A
:10159000CE870601C96BC95305E102010269060144
:1015A000C92BF9D701010201023D01D006D002C2C8
:1015B000CAF6000113DC02010269010E036F046B1D
:1015C00004890483000112000201023D01D006D00B
:1015D00002C2CAF6000102DC02010269036B0001CB
:1015E0001FEF0BF00101C36B0001D18F0101CEB1E0
:1015F00017D00001C7EF05F003C047F602C046F65A
:1016000001C045F600C044F603C05DF602C05CF6BA
:1016100001C05BF600C05AF696EC05F00101CE81E0
:10162000000187EF06F01CD4E1D60601C86B00016B
:10163000ACDFD1BD04D00601446B0001C5D711EF6A
:101640006BF0B250B3CF03F0A1A20CD0010E1D2657
:10165000D8B01E2AD8B41F2AD8B4202AA192B250DA
:10166000B3CF03F003C000F01DC001F01EC002F0B4
:101670001FC003F02050E832033202320132003240
:10168000E832033202320132003212007F0E0601CC
:10169000446F000119EC03F0015036EF6BF08E0E31
:1016A000006EC0C601F0BFC602F0036A015209E134
:1016B00002C001F0026A080E005E015202E1006AF7
:1016C00008D0D89001BE04D0023601360006F9D702
:1016D000019E12000601E151D8B471D0006EE551AF
:1016E000D8B46DD0002604E3810E002668E204D051
:1016F0007F0E005E64E363E0E2C6E9F6E651E91BB3
:10170000E28FE68FE451E803F4CFEBF6E351E70311
:10171000F4CF03F0F3CFEAF6E803F350EB27F450ED
:10172000EA23000E0322E451E703F350EB27F450C1
:10173000EA23000E026A03220222E251E803F35078
:10174000EA27F4500322000E0222E251E703F3508D
:101750000326F4500222000E016A0122E451E6033E
:10176000F350EA27F4500322000E02220122E35133
:10177000E603F3500326F4500222000E0122E25148
:10178000E603F3500226F4500122002A01BE05D0E0
:10179000EA370336023601360006000EEAAF0AD0F9
:1017A000032A02220122015005E1025003E1035005
:1017B00001E1002AE9BF018EE9AF019E04D0006A71
:1017C000016A026A036A000112008E0E006E0601B1
:1017D000BF51005EC0C602F0C1C601F0028E0052C9
:1017E00009E0D890025202E1015204E002320132D3
:1017F000002EF7D7C0AF05D0011E021E012AD8B4B3
:10180000022A00011200D2C3D3F461EF6BF0C9C603
:10181000B4FE0000010E0E01B26F00008AB1FED7C7
:10182000B26B0000B8CECAF60000B9CECBF6060106
:10183000CAC601F0CBC602F0000124EF0CF0010E85
:101840000601C96F0001E3D701C0C9F6000E060109
:1018500001B4010E016E000112000601D46BD90E15
:10186000D36FD26BD2510908D8A0A1D00C0ED325CA
:10187000E96E000ED421EA6EECCFD6F6ED52EFCF32
:10188000D5F6D553D8A48DD0D653D8A48AD00C0E73
:10189000D325E96E000ED421EA6ECFC6ECFFED52DF
:1018A000CEC6EFFFCE5323E1CF5321E10101FD511D
:1018B0001F0805E2FF0A06E1FC51000803E3FD51A1
:1018C0000F0803E3100EFD6FFC6B0C0E0601D32511
:1018D000E96E000ED421EA6E0101FDC103F0FC5156
:1018E000FC2BD8B4FD2BEF6E03C0ECFF0601CD53EB
:1018F00008E0C95321E1CA531FE1CB531DE1CC538A
:101900001BE1D4C603F0D3C6D5F6D4C6D6F6D4C6EA
:10191000EAFFD3C6E9FF0068026A0A0E016E000101
:1019200041EC07F00E0E0601D325E96E000ED4211E
:10193000EA6E050EEF6E25D0CD51040A000101E0DC
:101940001FD00601D4C603F0D3C6D5F6D4C6D6F64A
:10195000D4C6EAFFD3C6E9FFCAC6E2FFC9C6E1FFA3
:101960000A0E016EE6CFEEFF012EFCD70E0ED32538
:10197000E96E000ED421EA6E050EEF6E02D0000172
:1019800006010A0ED325E96E000ED421EA6ED1C6F7
:10199000ECFFED52D0C6EFFFD2C6D8F0D2C601F0B0
:1019A00008D0170ED327D8B0D42BD22B5BD7FF0E7D
:1019B000016E00011200F28A0000F29AD6CFDBF12C
:1019C000D7CFDCF1010E07013F6FDD0EE96E3FC797
:1019D000EAFFD7C1EFFFD8C1ECFFD9C1ECFFDAC1F4
:1019E000ECFFF2A402D00001E6D7F28A0001120057
:1019F000E2DF010E07013F6FDB0E3FC703F0E96E28
:101A00003FC7EAFFEFCF00F0ECCF01F0ECCF02F0E0
:101A1000ECCF03F000011200D28ED29E080E070117
:101A20003D6F3D513D07000AFCE16092D286000106
:101A3000DFDF01C0E7F100C0E6F11200D2B603D04B
:101A4000010E016E18D0D4DF01C03EF700C03DF793
:101A50000101E65107013D5F0101E75107013E5BCE
:101A600003E13D51480804E2D2960001D5DF0701A9
:101A7000000E016E00011200080E0601CA25CC6F8F
:101A8000000ECB21CD6F230ECC27160ECD230E0ECC
:101A9000CC27000ECD23140ECC27000ECD23CDC6AF
:101AA0004DF7CCC64CF70001A2EC07F0CBC6F7F11E
:101AB000CAC6F6F171EF0DF0C1DF015204E1000E6C
:101AC000016E026E1CD00601C9510101F55D0AE0EC
:101AD000C9C6F5F1C06BBF6B0601CB6BCA6B0001C9
:101AE000CBD70101C9C6D8F0C00ED880BF55006E53
:101AF000050EC055036E00C001F0026E0001120019
:101B00000601E96BEA6B010EEB6FDA6AD96A060E21
:101B1000EE6FE10EED6F060EEA6EE50EE96EEEC6B3
:101B2000E2FFEDC6E1FFEBC6ECF6D890E550EE0221
:101B3000F350E923F450EA23EC2FF7D7E9C6DEFF90
:101B4000EAC6E9F6EA6BD8B0EA2BED2BD8B4EE2B57
:101B5000EB2BEB510508DFE100011200016A026A7C
:101B6000006A036A0601E75102E1E65118E0100E2F
:101B7000E86FD890E437E53700360336E751035C69
:101B800002E1E651005C07E3E651005ED8A00306DF
:101B9000E751035ED88001360236E82FEAD700010C
:101BA0000DEF0EF098C0E4F697C0E3F696C0E2F6AB
:101BB00095C0E1F6410E0601E86FC60EE76F4E0EC6
:101BC000E66F6D0EE56F00019BDF390E0601002404
:101BD0000001956F300E060101200001966F000E86
:101BE000060102200001976F000E0601032000018C
:101BF000986F97C000F098C001F0026A036A98C01D
:101C0000E3F697C0E2F698C0E5F697C0E4F67F0EDB
:101C10000601E76FE6690001A1D700C001F003C02B
:101C200002F012000101F751040808E2FF0A03E183
:101C3000F651BF0803E2000E016E16D0E3C660F74E
:101C400000016AEC06F00101F62BD8B4F72BC05165
:101C5000F75D08E303E1F651BF5D04E2F7C1C0F1AF
:101C6000F6C1BFF1010E016E00011200C00ED88056
:101C70000101F6550601E56F050E0101F755060154
:101C8000E66FE651E45D08E303E1E351E55D04E25C
:101C9000E6C6E4F6E5C6E3F6E3510101F6270601E0
:101CA000E4510101F723C051F75D08E303E1F65168
:101CB000BF5D04E2F7C1C0F1F6C1BFF1E2C662F751
:101CC000E1C661F7E4C664F7E3C663F70001B1EC6F
:101CD00007F00601E3C601F0E4C602F000011200BD
:101CE000E2C6E4F6E1C6E3F6E4C603F00601E3C6A5
:101CF000E9FFE4C6EAFFEF5206E0E32BD8B4E42B99
:101D00000001F2D70601E151E35D006EE251E459B2
:101D1000036E00C001F0026E000112000900F552CE
:101D200010E0F6CFDFF6F7CFE0F6F8CFE1F6F5CF2B
:101D3000E3F678DFDFC6F6FFE0C6F7FFE1C6F8FF9F
:101D4000EDD7ACEF11F05DC75FF75CC75EF75FC71B
:101D500060F75EC75FF760C75EF707015EC701F017
:101D60005FC702F000011200020E07015625016E46
:101D7000000E5721036E01C058F7596F020E562509
:101D8000E96E000E5721EA6EECCF5DF7ED52EFCF12
:101D90005CF70001D8DF59C7EAFF58C7E9FF02C066
:101DA000ECFFED5201C0EFFF040E07015625016E56
:101DB000000E5721036E01C058F7596F040E5625C7
:101DC000E96E000E5721EA6EECCF5DF7ED52EFCFD2
:101DD0005CF70001B8DF59C7EAFF58C7E9FF02C046
:101DE000ECFFED5201C0EFFF0A0E07015625016E10
:101DF000000E5721036E01C058F7596F0A0E562581
:101E0000E96E000E5721EA6EECCF5DF7ED52EFCF91
:101E10005CF7000198DF59C7EAFF58C7E9FF02C025
:101E2000ECFFED5201C0EFFF1200D89007015B31CB
:101E30005D6F5A315C6F59C75FF758C75EF7636BC8
:101E4000626B616B606B5DC703F05C51D8B45D077A
:101E50005C0703101EE05FC703F05EC700F0020ED0
:101E60005E27D8B05F2B00C0E9FF03C0EAFFECCFCC
:101E700003F0ED52EFCF00F003C001F0026A036AF5
:101E800000506027015061230250622303506323F6
:101E9000DAD75A51010B006E036A0050031011E0AB
:101EA0005EC7E9FF5FC7EAFFEFCF00F0016A026A91
:101EB000036A0050602701506123025062230350DF
:101EC0006323676B666B61C765F760C764F762C7BA
:101ED00000F063C701F0026A036A62516025606F17
:101EE00063516121616F02506621626F0350672167
:101EF000636F625160276351612361C703F0031E62
:101F00006051FF0A016E03C002F000011200160EBC
:101F10000E01E36F230EE26F300E07015D27160EF0
:101F20005E235EC7E7FE5DC7E6FE5BC762F75AC782
:101F300061F7646B060E636F0001B1EC07F00701F7
:101F4000606BD20E5F6F60C762F7616F646B060EE5
:101F5000636F0001B1EC07F0080E0701606F00012C
:101F60006AEC06F007015C5302E1000E01D0060E98
:101F70005F6F606F00016AEC06F01200140E010141
:101F8000EA6F450E0701426F436B140E4025446F04
:101F9000000E4121456F0101E82BD8B4E92BE9C1BE
:101FA00047F7E8C146F70701496B486B640E4A6F73
:101FB0003FC74BF74D6B4C6BA8C051F7A7C050F70C
:101FC000A6C04FF7A5C04EF73DC7E9FF3EC7EAFFE1
:101FD000EFCF52F7ECCF53F7ECCF54F7ECCF55F7E8
:101FE000070E576F420E566F0001BEDE070E070147
:101FF000576F420E566F57C759F7586F5B6B140EE9
:102000005A6F000112DF02C04DF701C04CF7040EF9
:1020100007013D25016E000E3E21036E01C056F7FB
:10202000576F140E4025586F000E4121596F03C0A1
:102030005BF701C05AF75C6B5E6F58C75DF7000134
:1020400066DF070E0701576F420E566F57C762F7DC
:10205000616F646B140E636F0001B1EC07F0000E4A
:10206000016E026E1200D851170DF350036AD90F9A
:10207000016E000E032201C0E7F6060103C0E8F678
:10208000080E0101BF250601E96F000E0101C02104
:102090000601EA6F0C0EE725E96E000EE821EA6EF4
:1020A000ECCF5DF7ED52EFCF5CF700014CDE02C0E4
:1020B000E0F601C0DFF60A0E0601E725E96E000E24
:1020C000E821EA6EECCF5DF7ED52EFCF5CF700014F
:1020D0003ADE02C0E2F601C0E1F6EAC65DF7E9C603
:1020E0005CF731DE02C0E4F601C0E3F60601E66B00
:1020F000E56B160E07014D6F310E4C6F0001A2EC1F
:1021000007F0E7C601F0E8C603F0E7C6EBF6E8C65D
:10211000ECF6E8C63EF7E7C63DF7110E07013F6F44
:10212000EAC641F7E9C640F7000128DF060E0601BE
:10213000EC6FDF0EEB6FECC662F7E8CF61F70701DB
:10214000646B080E636F0001B1EC07F065DC010100
:10215000C06BBF6BF569000123EF12F00601C92DBA
:1021600010D000011FDD02C0E0F601C0DFF61ADD6D
:10217000DFC600F2E0C601F201C0FEF102C0FFF1CD
:102180000601010EE36F00014DDD010E0601E36F54
:10219000000148DD060E0601E36F000143DD060184
:1021A000E36B00013FDDFEC1DFF6FEC1E3F63ADD81
:1021B000FFC1DFF6FFC1E3F635DD00C2DFF600C286
:1021C000E3F630DD01C2DFF601C2E3F62BDD0601E6
:1021D000E36B000127DD0601E36B000123DD020153
:1021E00004A902D0000E01D0800E0601DF6FE36F5C
:1021F000000118DD0601E36B000114DD0601C95181
:10220000030810E1CA530EE0020EE06F110EDF6FFB
:10221000E0C6E2F6E16FE46B040EE36F000126DD39
:1022200010D00601E36B0001FDDC0601E36B000149
:10223000F9DC0601E36B0001F5DC0601E36B00014C
:10224000F1DC0601CB6BCB510B0806E3E36B00011D
:10225000E9DC0601CB2BF7D7E06BD20EDF6FE0C6CF
:10226000E2F6E16FE46B060EE36F0001FFDC0601AE
:10227000CB6BCB51C90806E3E36B0001D3DC06014D
:10228000CB2BF7D7630EE36F0001CCDC820E060187
:10229000E36F0001C7DC530E0601E36F0001C2DCEF
:1022A000630E0601E36F0001BDDC350E0601E36F2E
:1022B0000001B8DC010E0601E36F0001B3DCC9C602
:1022C000E3F6B0DC0601C92D03D002010495060136
:1022D000C951030818E1CA5316E1360EE36F000135
:1022E000A1DC040E0601E36F00019CDC10C2E3F6E2
:1022F00099DC0FC2E3F696DC0EC2E3F693DC0DC266
:10230000E3F690DC06010C0EE36F00018BDC060E99
:10231000EA6ED00EE96E0F0E016EF76A000E71ECD8
:1023200000F00A000900F5CFEEFF012EFBD7060EE4
:102330000601E26FD00EE16F0001D2DC02C0E2F6CE
:1023400001C0E1F601C0E3F66DDC600EF66E010E31
:10235000F76E000EF86EE2D4370E0601E36F00014F
:1023600061DC040E0601E36F00015CDC010E060176
:10237000E36F000157DC030E0601E36F000152DC3E
:10238000060E0601E36F00014DDC0C0E0601E36F43
:10239000000148DC0601C951030802E1CA5318E0F4
:1023A000C92D2DD002011153D8B402D0060110D08E
:1023B0001253D8B402D006010BD01353D8B402D0B4
:1023C000060106D01453D8A402D0060118D0060185
:1023D000320EE36F000126DC040E0601E36F0001FC
:1023E00021DC020E0601E06F110EDF6FE0C6E2F69F
:1023F000E16FE46B040EE36F000138DC0601E36972
:10240000000110DC0101C05101080AE303E1BF51E2
:102410002B0806E30601E36B000104DCF3D701019E
:10242000A8C0CFF6A7C0CEF6A6C0CDF6A5C0CCF604
:102430000601CA5306E10001A86BA76BA66BA56B4A
:102440000601000110D6CFC6A8F0CEC6A7F0CDC6B3
:10245000A6F0CCC6A5F01200140E0101E325070179
:102460001F6F000E0101E4210701206F1B511F2582
:102470001D6F1C5120211E6F1E51150809E2FF0A15
:1024800003E11D51210804E2220E1D5F160E1E5BA2
:102490001DC77AFF1EC77BFF000112000101EA5130
:1024A00007011725196F000E18211A6F1C6F19C725
:1024B0001BF70001D1DF1200080E0601D625D86FE8
:1024C000000ED721D96FE8CF18F7D8C617F700014B
:1024D000E5DFD7C6F9F1D6C6F8F11200C9C6D8F0C3
:1024E0000601C9510101FB5D04E0000E016E026EA0
:1024F00012D0FAA107D0FA910601D76BD66B000172
:10250000DBDF0101F851C15D006EF951C259036E64
:1025100000C001F0026E000112000101C251F95D1C
:1025200004E308E1C151F85D05E20001D851010161
:10253000FB5D03E0000E016E15D0D9C603F0D8C6CE
:10254000DAF6D9C6DBF6000107EC08F0DBC6EAFFD5
:10255000DAC6E9FF01C0EFFF0101F82BD8B4F92B6F
:10256000010E016E000112000101C251F95D04E388
:1025700008E1C151F85D05E20001D8510101FB5DA0
:1025800004E0000E016E026E31D0F851C15D06010B
:10259000DC6F0101F951C2590601DD6FDD51DB5DD0
:1025A00008E303E1DA51DC5D04E2DDC6DBF6DCC6FC
:1025B000DAF6D9C65EF7D8C65DF7DBC660F7DAC6CD
:1025C0005FF70001D9EC07F002C0DBF601C0DAF6D4
:1025D0000601DA510101F8270601DB510101F92357
:1025E0000601DAC601F0DBC602F0010100011200AB
:1025F000240E1C6E0101E5A101D023D0E581250E3A
:102600001C6E010EE15D0601F36F000E0101E2593F
:102610000601F46F320E1C6EF451150809E2FF0A30
:1026200003E1F351210804E2160EF46F210EF36F5B
:102630000E01FE8D330E1C6EF3C6ECFEF4C6EDFEED
:102640000101000112000101FAB307D00001D0DF3F
:102650000101C26BC16BFB69FA8300011200060124
:10266000CC6B060ED96FC90ED86F000156DF06017C
:10267000C9510208D8A4BFD1D76B040ED66F000190
:102680001BDF060E0601D96FD20ED86FDB6B040E6E
:10269000DA6F000169DF0101FE510601D25D0FE131
:1026A0000101FF510601D35D0AE10201005106015B
:1026B000D45D05E1020101510601D55D01E0C6D1FD
:1026C000D76B1C0ED66F0001F7DE0601CA6BCA512C
:1026D000050814E3060ED96FC90ED86F00011DDF7F
:1026E000036A0601CA51D20FE96E000E0320EA6E9A
:1026F000EF50C95D01E0AAD1CA2BE9D7020104B5A8
:1027000015D00601D76B100ED66F0001D5DE020E74
:102710000601D76F110ED66FD7C6D9F6D86FDB6B0F
:10272000040EDA6F000120DF02011D810601D76B64
:10273000F00ED66F0001C0DE0601CD91060ED96FF6
:10274000C90ED86F0001E9DE015204E10601CD8116
:1027500052D100010601C951350A00010EE0340AC8
:102760002DE0020A5DE0350AD8B49AD0C90AD8B47F
:10277000C3D0CC0AD8B4C4D026D1060E0601D96F76
:10278000C90ED86F0001C9DE0601C92D14D0060E8E
:10279000D96FCC0ED86F0001C0DE020104A509D0AC
:1027A0000601CC510208D8B402D0020102D04ED1A9
:1027B000020103D006014AD102011AD1060E060118
:1027C000D96FC90ED86F0001A8DE0601C9510408EF
:1027D00024E1020104A510D00601CA6BCA51030806
:1027E00009E3060ED96FC90ED86F000196DE060107
:1027F000CA2BF4D711D00201020E0601D76F190EB1
:10280000D66FD7C6D9F6D86FDB6B040EDA6F00012E
:10281000ABDE02011D85060101D018D10201E8D00E
:10282000060E0601D96FCB0ED86F000176DE0601C9
:10283000CB51030824E2020104A510D00601CA6BA3
:10284000CA51030809E3060ED96FC90ED86F0001FB
:1028500064DE0601CA2BF4D711D00201020E060174
:10286000D76F150ED66FD7C6D9F6D86FDB6B040EAF
:10287000DA6F000179DE02011D83060101D0E6D086
:10288000040ECB5FCB51CB07000A08E0060ED96FD0
:10289000C90ED86F000141DE0601F4D70201A8D0AD
:1028A000060E0601D96FC90ED86F000136DE06018B
:1028B000C95104081DE1060ED96FD10ED86F000171
:1028C0002CDE060E0601D96FD00ED86F000125DE72
:1028D000060E0601D96FCF0ED86F00011EDE060E60
:1028E0000601D96FCE0ED86F000117DE03D00601A6
:1028F000ADD0000102017CD00601CD81020178D06B
:10290000060E0601D96FC90ED86F000106DE06015A
:10291000C951040854E1020104A510D00601CA6B94
:10292000CA51030809E3060ED96FC90ED86F00011A
:10293000F4DD0601CA2BF4D741D00201020E0601D4
:10294000D96F0C0ED86F0001E8DD020E0601D96FB9
:102950000B0ED86F0001E1DD020E0601D96F0A0EE1
:10296000D86F0001DADD020E0601D96F090ED86FAB
:102970000001D3DD02010C31036E0B31026E0A310E
:10298000016E0931006E033202320132003203322D
:10299000023201320032033202320132003203329B
:1029A000023201320032070E03160050095F015057
:1029B0000A5B02500B5B03500C5B060101D046D052
:1029C000020116D00001060E0601D96FCB0ED86F9A
:1029D0000001A3DD0601CB51CB07000A08E0060E7B
:1029E000D96FC90ED86F000198DDF4D70601020136
:1029F0000601CDA1A3D6CC5102080CE1D1C610F23C
:102A0000D0C60FF2CFC60EF2CEC60DF2020104857B
:102A100017D00601CE5102010D5D0FE10601CF5125
:102A200002010E5D0AE10601D05102010F5D05E1D0
:102A30000601D1510201105D03E00601CC6B0201D9
:102A4000000101DE0601CCC601F005D00001FBDD6E
:102A5000000E016E060100011200110E1C6E06012F
:102A6000C86BC853D8A48AD202010351F30FD8B05F
:102A700082D20D0F0001C1EF17F002017CD2120EBD
:102A80001C6E0601CC6BCB6BCA6BC96BCD6BCF6B6D
:102A9000440ECE6FD16B430ED06F00012DEC0CF0C5
:102AA00001C002F20201023D01D065D2020E036FA5
:102AB0000001130E1C6E02010C6B0B6B0A6B3C0EBB
:102AC000096F1D6B0491049500011FEC0CF001527D
:102AD00003E1020150D2000102C2C9F65CEC0DF024
:102AE00002C0CAF601C0C9F606010250010807E398
:102AF00003E1C9512B0803E302013DD20601000E98
:102B0000020104B9010E010A0499E8B004890251D6
:102B1000170DF3500601CA6BC96FD90EC925016E96
:102B2000000ECA21036E01C0CBF6CC6FEA6E01C065
:102B3000E9FF0068026A0A0E016E000141EC07F02D
:102B4000010E0601C96FCA6B0001AEEC10F0F8EC83
:102B50000CF003C008F202C007F201C006F200C088
:102B600005F2030E0201036F06D2140E1C6E02C2A0
:102B7000C9F6B4DC02C0CAF601C0C9F60601CA53E0
:102B800033E1C951F90830E30001F8EC0CF003C05F
:102B9000CCF602C0CBF601C0CAF600C0C9F60201ED
:102BA00005510601C95F020106510601CA5B020117
:102BB00007510601CB5B020108510601CC5B0DE118
:102BC000CB5100080EE2FF0A08E1CA51DB0809E216
:102BD000FF0A03E1C951D50804E2020E0201036FA6
:102BE00006010201C8D1060102010487000137DD98
:102BF0000150020803E00201BED10001040E0201EF
:102C0000036F0001150E1C6E02C2C9F65CEC0DF0DC
:102C100002C0CAF601C0C9F606010250010807E366
:102C200003E1C951010803E30201A5D10601020134
:102C30000251170DF3500601CA6BC96FD90EC92591
:102C4000016E000ECA21036E01C0CBF6CC6FEA6E96
:102C500001C0E9FF0068026A0A0E016E000141EC42
:102C600007F0030E0601C96FCA6B0001AEEC10F04D
:102C7000F8EC0CF003C008F202C007F201C006F243
:102C800000C005F2050E0201036F75D1160E1C6E11
:102C900002C2C9F623DC02C0CAF601C0C9F60601A9
:102CA000CA5333E1C951F90830E30001F8EC0CF0E4
:102CB00003C0CCF602C0CBF601C0CAF600C0C9F60C
:102CC000020105510601C95F020106510601CA5BF6
:102CD000020107510601CB5B020108510601CC5BE2
:102CE0000DE1CB5100080EE2FF0A08E1CA51DB08F2
:102CF00009E2FF0A03E1C951D50804E2020E02010C
:102D0000036F0601020137D106010001A8DC015062
:102D1000050A03E0030A37E03AD002C2CAF6EEEC35
:102D200006F0020102690001F8EC0CF003C008F2A1
:102D300002C007F201C006F200C005F2060E020151
:102D4000036F048304811DA108D014C2A8F013C22C
:102D5000A7F012C2A6F011C2A5F01DA508D01CC292
:102D6000ACF01BC2ABF01AC2AAF019C2A9F01DA3A5
:102D700008D018C2B0F017C2AFF016C2AEF015C23C
:102D8000ADF0000104D0020E0201036F0001020148
:102D9000F2D0170E1C6EF8EC0CF003C0CCF602C09B
:102DA000CBF601C0CAF600C0C9F602010551060102
:102DB000C95F020106510601CA5B02010751060103
:102DC000CB5B020108510601CC5B0CE1CB530AE15D
:102DD000CA515F0807E303E1C9515D0803E302013B
:102DE000CAD0060102010C5307E10B5305E10A5357
:102DF00003E10951010810E25E0E05275F0E06236C
:102E0000000E07230823FF0E0927D8A00A27D8A001
:102E10000B27D8A00C27AFD00601CC6BCB6BCA6BAD
:102E2000C96BCD6BCF6B440ECE6FD16B430ED06FA1
:102E300000012DEC0CF001C002F20201023D01D0B4
:102E40009AD0070E036F0001180E1C6E02C2C9F65D
:102E50005CEC0DF002C0CAF601C0C9F606010250D2
:102E6000010807E303E1C951010803E3020183D02C
:102E70000601030EC96F010ECA6F0001AEEC10F01F
:102E8000020104950001F8EC0CF003C008F202C046
:102E900007F201C006F200C005F20201032B6BD05D
:102EA000190E1C6E02C2C9F66EEC12F002C0CAF610
:102EB00001C0C9F60601CA5337E1C951F90834E324
:102EC0000001F8EC0CF003C0CCF602C0CBF601C058
:102ED000CAF600C0C9F6020105510601C95F020128
:102EE00006510601CA5B020107510601CB5B0201D4
:102EF00008510601CC5B0DE1CB51000812E2FF0A3C
:102F000008E1CA51DB080DE2FF0A03E1C951D50807
:102F100008E20201032B03510C0802E2020E036FC8
:102F20000601020128D0060100012FEC13F0015028
:102F3000050A03E0030A18E01BD002C2CAF6EEEC51
:102F400006F0020102690001F8EC0CF003C008F27F
:102F500002C007F201C006F200C005F2060E02012F
:102F6000036F0483000104D0020E0201036F00010D
:102F7000020101D002010601C82B73D500011FEF29
:102F800036F0E824F76AF736A30FF66E2F0EF72215
:102F9000000EF86EFB6E0A00F550FA6E0800F55050
:102FA000F96E7A2A7E2AB22A6A2B042C8C2C922D56
:102FB000482EA02E482EA02E482EA02E000E020134
:102FC00004B1010E016E000124EF36F0DBEC0CF0D1
:102FD000DCC113F7DDC114F7DEC115F7DFC116F749
:102FE00013C700F014C701F015C702F016C703F0AD
:102FF00012000601FD51FF03F3CF01F0F4CF00F002
:1030000007010003F35000260601FE51FF03F350B1
:103010000020026E00011200D9CE3DF7EFCE40F73E
:10302000EECE3FF707013D510E01D95DD8B402D075
:103030000001F2D7EDCE3EF7ECCE3DF707013E5151
:10304000405D16E303E13F513D5D12E23D513F5DBE
:10305000006E3E514059036E0050FF0A220F006E71
:10306000160E035600C001F003C002F01CD01BD0A6
:103070003D513F5D09E13E51405D06E1210E016E8B
:10308000160E026E10D00FD03F513D5D416F405182
:103090003E59426F010E415D006E000E4259036EB3
:1030A00000C001F0026E0001ECEF1CF0070E0701FA
:1030B0004A6F450E016E4AC7EAFFE96EEFCF4DF742
:1030C000070E4F6F450E4E6F030E4E25E96E000E34
:1030D0004F21EA6EEF504D194AC7EAFF01C0E9FFE0
:1030E000EF6E070E4A6F450E496F030E4925016EBC
:1030F000000E4A21036EEA6E01C0E9FFEFCF4DF7E3
:10310000070E4F6F450EE96E4FC7EAFFEF504D199E
:1031100003C0EAFF01C0E9FFEF6E070E4A6F450EDC
:10312000016E4AC7EAFFE96EEFCF4DF7070E4F6F0A
:10313000450E4E6F030E4E25E96E000E4F21EA6ECE
:10314000EF504D194AC7EAFF01C0E9FFEF6E070EC5
:103150004A6F450E496F010E4925016E000E4A2146
:10316000036EEA6E01C0E9FFEFCF4DF7070E4F6F18
:10317000450E4E6F020E4E25E96E000E4F21EA6E8F
:10318000EF504D1903C0EAFF01C0E9FFEF6E070ED3
:103190004A6F450E496F020E4925016E000E4A2105
:1031A000036EEA6E01C0E9FFEFCF4DF7070E4F6FD8
:1031B000450E4E6F010E4E25E96E000E4F21EA6E50
:1031C000EF504D1903C0EAFF01C0E9FFEF6E070E93
:1031D0004A6F450E496F010E4925016E000E4A21C6
:1031E000036EEA6E01C0E9FFEFCF4DF7070E4F6F98
:1031F000450E4E6F020E4E25E96E000E4F21EA6E0F
:10320000EF504D1903C0EAFF01C0E9FFEF6E45C75B
:1032100000F046C701F047C702F048C703F00001BD
:10322000120007013DC701F03EC703F03DC73FF75D
:103230003EC740F73DC7E9FF3EC7EAFFECCF5DF769
:10324000ED52EFCF5CF70001A3EC0EF040C7EAFFB0
:103250003FC7E9FF02C0ECFFED5201C0EFFF020ED5
:1032600007013D25016E000E3E21036E01C03FF7B0
:10327000406F020E3D25E96E000E3E21EA6EECCF56
:103280005DF7ED52EFCF5CF70001A3EC0EF040C705
:10329000EAFF3FC7E9FF02C0ECFFED5201C0EFFFBC
:1032A000040E07013D25016E000E3E21036E01C094
:1032B0003FF7406F040E3D25E96E000E3E21EA6E99
:1032C000EFCF45F7ECCF46F7ECCF47F7ECCF48F719
:1032D0000001ECDE40C7EAFF3FC7E9FF00C0EFFF97
:1032E00001C0ECFF02C0ECFF03C0ECFF080E0701B9
:1032F0003D25016E000E3E21036E01C03FF7406F79
:10330000080E3D25E96E000E3E21EA6EEFCF45F72F
:10331000ECCF46F7ECCF47F7ECCF48F70001C6DE1D
:1033200040C7EAFF3FC7E9FF00C0EFFF01C0ECFF65
:1033300002C0ECFF03C0ECFF0E0E07013D25016E3D
:10334000000E3E21036E01C03FF7406F0E0E3D257B
:10335000E96E000E3E21EA6EECCF5DF7ED52EFCF45
:103360005CF70001A3EC0EF040C7EAFF3FC7E9FF9E
:1033700002C0ECFFED5201C0EFFF100E07013D252A
:10338000016E000E3E21036E01C03FF7406F100E2C
:103390003D25E96E000E3E21EA6EECCF5DF7ED5261
:1033A000EFCF5CF70001A3EC0EF040C7EAFF3FC788
:1033B000E9FF02C0ECFFED5201C0EFFF120E070162
:1033C0003D25016E000E3E21036E01C03FF7406FA8
:1033D000120E3D25E96E000E3E21EA6EECCF5DF740
:1033E000ED52EFCF5CF70001A3EC0EF040C7EAFF0F
:1033F0003FC7E9FF02C0ECFFED5201C0EFFF120032
:103400000701416B426B436B446B7BCF40F77ACF34
:103410003FF73D513E1155E03E5303E13D51140845
:1034200003E2036A140E03D03EC703F03D51456F1B
:1034300003C046F7070E5E6F470E5D6F46C760F725
:1034400045C75FF70001D9EC07F0070145513D5F23
:1034500046513E5B070E5E6F450EE96E5EC7EAFFA2
:10346000EFA00AD0470E4525E96E070E4621EA6E09
:10347000EF6A452BD8B4462B070E5E6F470E5EC72A
:103480005CF75B6F455146111BE05CC703F05BC7FF
:1034900000F0020E5B27D8B05C2B00C0E9FF03C030
:1034A000EAFFECCF03F0ED52EF50412703504223E7
:1034B000000E43234423020E455F000E465BE2D715
:1034C000A8D740C77BFF3FC77AFF606B5F6B42C7DF
:1034D0005EF741C75DF743C700F044C701F0026AD9
:1034E000036A43514125416F44514221426F0250CA
:1034F0005F21436F03506021446F43514127445182
:10350000422342C703F0031E4151FF0A016E03C06C
:1035100002F00001120023EC09F007011351010B26
:10352000006E036A0050031004E00201D487070113
:1035300013910201D39BD39DD39FD493D495D4915F
:1035400000011EEC0DF00152FCE007011351060BC7
:10355000006E036A0050031003E03C6B3B6B19D113
:1035600002016451C25D08E16551C35D05E10701D7
:103570003C6B3B6BF7D002016551C35D4FE303E148
:10358000C251645D4BE26451C25D07013B6F0201B1
:103590006551C35907013C6F02016B5107013C5D46
:1035A0000DE308E13B5102016A5DD8A002D007019A
:1035B00005D007016BC23CF76AC23BF702017C51A0
:1035C00007013C5D10E308E13B5102017B5DD8A09F
:1035D00002D0070108D007017CC23CF77BC23BF751
:1035E0000201D4850701160E456F590E446F466BD4
:1035F00065C248F764C247F7D7C249F73CC74BF7E3
:103600003BC74AF70001B0EC08F007013B5102014B
:10361000642707013C5102016523A3D06451BE5DBC
:103620000701396F02016551BF5907013A6F020165
:10363000C251070139253D6F0201C35107013A21EB
:103640003E6F0201BC5107013D5D3B6F0201BD5160
:1036500007013E593C6F02016B5107013C5D0DE3D0
:1036600008E13B5102016A5DD8A002D0070105D0F4
:1036700007016BC23CF76AC23BF702017C510701AC
:103680003C5D10E308E13B5102017B5DD8A002D014
:10369000070108D007017CC23CF77BC23BF702015F
:1036A000D48507013C513A5D08E303E139513B5DA4
:1036B00004E23CC73AF73BC739F7160E456F590E7F
:1036C000446F466B65C248F764C247F7D7C249F7F3
:1036D0003AC74BF739C74AF70001B0EC08F00701C9
:1036E00039513B5D396F3A513C593A6F39513A1172
:1036F00020E002016451BE5D006E6551BF59036E4A
:103700000050590F07013D6F160E03203E6F456FA5
:103710003DC744F7466BBDC248F7BCC247F7D7C2A6
:1037200049F73AC74BF739C74AF70001B0EC08F040
:1037300007013B510201642707013C510201652347
:10374000BF51655D0EE303E1BE51645D0AE3BC5108
:10375000BE5D006EBD51BF59036E0050645F0350E3
:10376000655B07010201D4A715D06A5107013B5DD3
:1037700005E102016B5107013C5D0BE002017B5149
:1037800007013B5D05E102017C5107013C5D01E061
:103790001381020107013B513C1107E11351030B57
:1037A000006E036A0050031037E03B5102016A5F6C
:1037B00007013C5102016B5B07013B513C1101E0E9
:1037C00013871451010B006E036A0050031009E0C7
:1037D00002017D6B5B6B5A6B5F0E596F5E0E586F0B
:1037E00007010001F8EC0CF0020158510701002418
:1037F0000201CA6F5951070101200201CB6F5A51D2
:10380000070102200201CC6F5B5107010320020176
:10381000CD6FD38949D007011451020B006E036AA2
:103820000050031014E00201D351010F070B006E8A
:10383000F80ED3150010D36F010E5C5F000E5D5BB8
:103840005E5B5F5B07013C6B010E3B6F2ED002019C
:10385000D3A92AD007011451010B006E036A00504E
:1038600003100AE102017D5306E07D07D8905B3327
:103870005A335933583307010001F8EC0CF00201B8
:103880005851070100240201CA6F59510701012054
:103890000201CB6F5A51070102200201CC6F5B512C
:1038A000070103200201CD6F070169C218F768C242
:1038B00017F767C21AF766C219F75FC21EF75EC232
:1038C0001DF75DC21CF75CC21BF763C222F762C220
:1038D00021F761C220F760C21FF73F0E2415246F45
:1038E000F00E2315236F13C724F72A6B296B3CC7EF
:1038F00001F0026A036A3B5102015C2701505D231B
:1039000002505E2303505F2307011351020B006E28
:10391000036A0050031023E01351100B006E036A7A
:103920000050031004E1226B216B206B1F6B02011E
:103930007AA30BD0FF0E07011B27D8A01C27D8A005
:103940001D27D8A01E270BD00201010E5C27D8B07E
:103950005D2BD8B45E2BD8B45F2B7A83070113514B
:10396000010B006E036A0050031003E002017A812C
:1039700007010201C951C75D1DE303E1C851C65DDE
:1039800019E3BE51C05D07013D6F0201BF51C1592E
:1039900007013E6F0201C851C65D006EC951C7598B
:1039A000036E005007013D5D256F03503E59266FA1
:1039B00010D00201C651C85D07013D6F0201C75119
:1039C000C95907013E6F010E3D5D256F000E3E593E
:1039D000266F00010CEF18F002C016F701C015F7B2
:1039E0000701165306E115513F0803E3166B156BEB
:1039F00004D0400E155F000E165B1651265D08E3DD
:103A000003E12551155D04E216C726F715C725F712
:103A1000070E3E6F170E3D6F000103DC140E070109
:103A20003B27000E3C230F0E23155009236F135123
:103A3000020B006E036A0050031017E0040E3B27D0
:103A4000000E3C23020E2B6F040E2C6F180E2E6FEF
:103A5000020E2D6F23390F0B010F006E0038F00B93
:103A6000006E0F0E23150010236FA8C032F7A7C0F9
:103A700031F7A6C030F7A5C02FF771C236F770C274
:103A800035F76FC234F76EC233F7376B060E386FF7
:103A90003CC73AF73BC739F73AC75DF739C75CF718
:103AA0000001A3EC0EF002C03AF701C039F7070E8F
:103AB00007013E6F2F0E3D6F3EC759F7586F5B6B86
:103AC0000C0E5A6F000115EC0FF001C027F707012B
:103AD000271F02C028F7281F160E4D6F310E4C6F9E
:103AE0000001A2EC07F0020E07013E6F6E0E3D6F63
:103AF000060E3F6F3CC741F73BC740F70001BEECE5
:103B00000FF0070E07013E6F170E3D6F3EC762F7BD
:103B1000616F646B140E636F0001B1EC07F0070175
:103B20001351020B006E036A005003100EE0070EE3
:103B30003E6F2B0E3D6F3EC762F7616F646B040EE4
:103B4000636F0001B1EC07F00701160E4D6F450ED3
:103B50004C6F0001CAEC07F03CC73EF73BC73DF78E
:103B60004FDC02C016F701C015F7160E07014D6FA6
:103B7000550E4C6F0001A2EC07F0070E07013E6FD7
:103B8000150E3D6F3EC762F7616F646B020E636F87
:103B90000001B1EC07F00CEC0DF012000601CD5164
:103BA000010801E26ED0CDC6FDF600014EEC07F033
:103BB000C7C2C9F2C6C2C8F20201D251000A00014E
:103BC00015E0020A13E0010A11E0060A0FE0030AF9
:103BD00010E0010A0EE00C0A29E0050A44E0060A9A
:103BE00047E0010A45E0050A43E042D08DEC09F0C8
:103BF00047D0110E0701136F010E146F00018BDC0B
:103C000002016A5303E16B5301E10CD06451C25DC0
:103C1000D8B402D00001EDD76551C35DD8B402D04D
:103C20000001E7D7080ED26F00012AD0110E07015C
:103C3000136F010E146F00016EDC02016A5303E181
:103C40006B5301E10CD06451C25DD8B402D00001C5
:103C5000EDD76551C35DD8B402D00001E7D70C0E93
:103C6000D26F00010DD00D0E0201D26F000108D0FD
:103C7000140E0701136F146B00014DDC8DEC09F07D
:103C80000601000112000601C86BC8510108D8A046
:103C90006BD3C8C6FDF600014EEC07F00601CA6BF7
:103CA000C991C9930201D4B302D0D4A50FD00001A9
:103CB0001EEC0DF001520BE0100E0601CA6FC99107
:103CC0000201D4A503D00601C9810201000102014D
:103CD000D3AB18D00001E6EC17F000500201CE5D26
:103CE000006E0150CF59036E00C0CDF60601CE6FB5
:103CF000E8BE05D0CE5305E1CD51000802E3100E19
:103D0000CA6F0201D3AD18D00001E6EC17F00050E5
:103D10000201D05D006E0150D159036E00C0CDF696
:103D20000601CE6FE8BE05D0CE5305E1CD510008A7
:103D300002E3100ECA6F0201D2510B081AE1000112
:103D4000E6EC17F000500201D05D006E0150D15931
:103D5000036E00C0CDF60601CE6FE8BE05D0CE538F
:103D600009E1CD51000806E3110ECA6F0C0E0201E5
:103D7000D26F06010201D2510408D8A468D106010D
:103D8000CC6BCB6BCC53D8A461D1CB510208D8A05B
:103D90005DD1CCC6FEF6CBC6FDF60701006B140E56
:103DA0000601FF6F0001F9EC17F001C0CDF6100E0F
:103DB00006010124016E000E0220036E0150800FE7
:103DC000E96E020E0320EA6EECCFCEF6ED52EFCF95
:103DD000CDF6CD5303E1CE5301E138D1CCC6FEF68A
:103DE000CBC6FDF60701006B140E0601FF6F000144
:103DF000F9EC17F001C0CDF6100E06010124016E9A
:103E0000000E0220036E0150800FE96E020E0320A7
:103E1000EA6EECCFCEF6ED52EFCFCDF60201D551E2
:103E20000601CD5DD8A40ED10201D6510601CE5DAA
:103E3000D8A408D1000123EC09F0020E0601CE6FD0
:103E40006E0ECD6FCCC6FEF6CBC6FDF60701006B3D
:103E5000140E0601FF6F0001F9EC17F002C0D0F656
:103E600001C0CFF6800E06010124016E020E022071
:103E7000036E01C0D1F6D26FCEC6EAFFCDC6E9FF10
:103E8000E26E01C0E1FF0A0E016EE6CFEEFF012EE9
:103E9000FCD7CCC6FEF6CBC6FDF60701006B140EB0
:103EA0000601FF6F0001F9EC17F001C0CDF60A0E14
:103EB00006010124016E000E0220036E0150800FE6
:103EC000E96E020E0320EA6EECCF67F2ED52EFCFFF
:103ED00066F2CCC6FEF6CBC6FDF60701006B140EEB
:103EE0000601FF6F0001F9EC17F001C0CDF60C0ED2
:103EF00006010124016E000E0220036E0150800FA6
:103F0000E96E020E0320EA6EEFCFCDF6ECCFCEF6CF
:103F1000ECCFCFF6ECCFD0F6010ECD250201606FCD
:103F2000000E0601CE210201616F000E0601CF21B5
:103F30000201626F000E0601D0210201636F6E5113
:103F400070250601CD6F02016F5171210601CE6F00
:103F5000020166510601CD27020167510601CE23F9
:103F6000CD5102016819D56F0601CE5102016919C0
:103F7000D66F120E0601CA6F060E0201D26FCCC6B2
:103F8000FEF6CBC6FDF60701006B140E0601FF6FAF
:103F90000001F9EC17F002C003F00150800F016E30
:103FA000020E032201C0CDF6060103C0CEF6010EBB
:103FB000CB25CF6F000ECC21D06FFE6FCFC6FDF6A4
:103FC0000701006B140E0601FF6F0001F9EC17F0FA
:103FD00002C003F00150800F016E020E032201C0E7
:103FE000CFF6060103C0D0F6020ED880CB55D16FB4
:103FF000000ECC55D26FFE6FD1C6FDF60701006BE7
:10400000140E0601FF6F0001F9EC17F002C0D2F6A2
:1040100001C0D1F6CEC645F7CDC644F7010E070163
:10402000466FD0C648F7CFC647F7496F02C04BF777
:1040300001C04AF70001B0EC08F00201B96BB86B9F
:10404000060104D0CB2BD8B4CC2B9CD602010601A0
:10405000CA530EE0C9A102D0000E01D0010ECD6FEF
:10406000CAC613F7E8CF14F700018BEC1AF006016B
:104070000201D3B96DD0D251070867E10001F8EC15
:104080000CF003C0D0F602C0CFF601C0CEF600C0DF
:10409000CDF60201CA510601005C006E0201CB514F
:1040A00006010158016E0201CC5106010258026E50
:1040B0000201CD5106010358036ED06F02C0CFF646
:1040C00001C0CEF600C0CDF6E8AE01D04BD1020162
:1040D000D351070B060818E10601CA6B0201D3A7EA
:1040E00003D00601CA2B0201C8C6CDF6000156DD79
:1040F000C8C6CDF653DD0601CA5304E10E0E020117
:10410000D26F06012FD10201000123EC09F0100E3D
:104110000701136F020E146F00018BEC1AF0F8EC1C
:104120000CF0AC0E060100240201CA6FB90E0601A4
:1041300001200201CB6F030E060102200201CC6FA9
:10414000000E060103200201CD6F06010BD1020112
:104150000001F8EC0CF003C0D0F602C0CFF601C0AD
:10416000CEF600C0CDF60201CA510601005C006E19
:104170000201CB5106010158016E0201CC5106012A
:104180000258026E0201CD5106010358036ED06F32
:1041900002C0CFF601C0CEF600C0CDF6E8AE01D029
:1041A000E1D0000123EC09F00201D251050A00011F
:1041B0000FE0030A1FE0010A34E00C0A32E0030AB0
:1041C00041E0010A4FE0030A53E0060A61E071D0C2
:1041D000020E0601CA6FC98102017D51030809E27E
:1041E000040E7D6F5B6B050E5A6FF50E596FE00E76
:1041F000586F60D002017D51010806E3120E0601DE
:10420000CA6FC9810CD00201D3A706D0140E0601D3
:10421000CA6FC98304D00201020E0601CA6F0201EF
:1042200049D002017D51040806E3100E0601CA6F51
:10423000C98106D00201080ED26F110E0601CA6FA5
:10424000020138D002017D51040806E3110E060177
:10425000CA6FC98105D00201140E0601CA6FC98355
:10426000020128D0140E0601CA6FC983020122D0B0
:1042700002017D51040806E3100E0601CA6FC981D0
:1042800005D00201140E0601CA6FC983020112D0C3
:1042900002017D51040806E3110E0601CA6FC981AF
:1042A00005D00201140E0601CA6FC983020102D0B3
:1042B000000102010601CA534FE0C9A144D0020126
:1042C0007D2BD890583759375A375B37C451645DC6
:1042D0000601CB6F0201C55165590601CC6F020181
:1042E0006551C55D10E303E1C451645D0CE2BC514E
:1042F000BE5D006EBD51BF59036E00500601CB2755
:104300000350CC2302010601CB5102015C5F060180
:10431000CC5102015D5B000E5E5B5F5B0601CB5121
:1043200002016A270601CC5102016B23C5C265F266
:10433000C4C264F2CAC613F70701146B00018BEC08
:104340001AF009D00601CAC613F7010E0701146F4F
:1043500000018BEC1AF00601C9A304D000018DEC1A
:1043600009F00601C82B91D4CC6BCB6BCC53D8A4ED
:10437000C6D0CB510208D8A0C2D0CCC6FEF6CBC660
:10438000FDF60701006B140E0601FF6F0001F9EC4A
:1043900017F001C0CDF6100E06010124016E000ECB
:1043A0000220036E0150800FE96E020E0320EA6EB8
:1043B000ECCFCEF6ED52EFCFCDF6CD5303E1CE5399
:1043C00001E19DD00001E6EC17F001C0CEF600C07F
:1043D000CDF6CCC6FEF6CBC6FDF60701006B140E7B
:1043E0000601FF6F0001F9EC17F002C0D0F601C022
:1043F000CFF6120E06010124016E000E0220036E9C
:104400000150800FE96E020E0320EA6EECCF03F03C
:10441000ED52EF50CD5F0350CE5BCE5100086BE202
:10442000FF0A03E1CD511E0866E2CCC6FEF6CBC6FC
:10443000FDF60701006B140E0601FF6F0001F9EC99
:1044400017F002C003F00150800F016E020E03222C
:1044500001C0CDF6060103C0CEF6010ECB25CF6F0D
:10446000000ECC21D06FFE6FCFC6FDF60701006BAA
:10447000140E0601FF6F0001F9EC17F002C003F003
:104480000150800F016E020E032201C0CFF606011B
:1044900003C0D0F6020ED880CB55D16F000ECC559C
:1044A000D26FFE6FD1C6FDF60701006B140E060138
:1044B000FF6F0001F9EC17F002C0D2F601C0D1F68F
:1044C000CEC645F7CDC644F7010E0701466FD0C6EC
:1044D00048F7CFC647F7496F02C04BF701C04AF70C
:1044E0000001B0EC08F00201B96BB86B0601CB51CA
:1044F000D8B4CC07CB07CB2BD8B4CC2B37D7000103
:104500002BEF36F00601C86BC85109083DE3C851CE
:10451000170DF350CA6BC96F0E0EC925016E000E40
:10452000CA21036E0150D90FE96E000E0320EA6E16
:10453000EF50050814E0C851170DF350CA6BC96F4E
:104540000E0EC925016E000ECA21036E0150D90F4F
:10455000E96E000E0320EA6EEF50040801E112D06C
:10456000C851170DF350CA6BC96F0E0EC925016EE5
:10457000000ECA21036E0150D90FE96E000E032010
:10458000EA6EEF50C82BC0D700012FEF36F00E01B6
:10459000D95307E1270E1C6E2C0E1C6E000E016E07
:1045A0008CD00101E5832D0E1C6EE5B10AD02E0ED4
:1045B0001C6E0001F8EC12F0000E016E0E017DD0B1
:1045C0000101E2C1E4F1E1C1E3F1E4C17BFFE3C138
:1045D0007AFF2F0E1C6E060E0601E16FCC0EE06F07
:1045E000E1C65EF7E8CF5DF70701606B140E5F6F01
:1045F0000001D9EC07F0DFC65DF7DEC65CF7A3EC7F
:104600000EF002C0DFF601C0DEF6300E1C6E0601B1
:10461000CD51150805E2FF0A19E1CC51210816E336
:10462000060EE16FCC0EE96EE1C6EAFFEFB00ED0E8
:10463000D1BF0CD0D0B90AD0CF51040805E2FF0A8F
:1046400005E1CE51EE0802E3D0BF03D0310E1C6E5F
:10465000FF00CDC6E2F1CCC6E1F1C9C603F0C8C681
:10466000E0F6C9C6E1F6060EE36FD80EC9C6EAFF4A
:10467000C8C6E9FFE3C6E2FFE16E060E016EE6CFB3
:10468000EEFF012EFCD7CBC603F0CAC6E9FF03C07C
:10469000EAFFEF68DF5108080BE1DE5303E0DE516B
:1046A000060806E1CAC6E9FFCBC6EAFFDEC6EFFF91
:1046B0000101E591010E016E0E01000141EF36F09E
:1046C0000601E6C601F0E7C603F0E6C6E8F6E7C66F
:1046D000E9F6E6C6E9FFE7C6EAFFECCF5DF7ED5283
:1046E000EFCF5CF70001A3EC0EF0E9C6EAFFE8C6E5
:1046F000E9FF02C0ECFFED5201C0EFFF020E060120
:10470000E625016E000EE721036E01C0E8F6E96FB1
:10471000020EE625E96E000EE721EA6EECCF5DF7AA
:10472000ED52EFCF5CF70001A3EC0EF0E9C6EAFF13
:10473000E8C6E9FF02C0ECFFED5201C0EFFF060E34
:104740000601E625016E000EE721036E01C0E8F6C2
:10475000E96F060EE625E96E000EE721EA6EECCF62
:104760005DF7ED52EFCF5CF70001A3EC0EF0E9C668
:10477000EAFFE8C6E9FF02C0ECFFED5201C0EFFF1F
:1047800012001EEC0DF00152FCE0160E07014D6FF9
:10479000230E4C6F0001A2EC07F00601E4C6E9FF0E
:1047A000E5C6EAFFEC6AED52010EEF6E020EE4255B
:1047B000E96E000EE521EA6E080EEC6EED52EF6A2E
:1047C000040EE425E96E000EE521EA6E060EEF6E9A
:1047D000050EE425E96E000EE521EA6E040EEF6E8B
:1047E000080EE425016E000EE521036E01C0E6F619
:1047F000E76FE96BD20E03C0EAFF01C0E9FFE9C62B
:10480000E2FFE16E060E016EE6CFEEFF012EFCD751
:104810000E0EE425E96E000EE521EA6EA5C0EFFF5D
:10482000A6C0ECFFA7C0ECFFA8C0ECFFE5C6E7F60A
:10483000E4C6E6F6000144DF120E0601E425016E2F
:10484000000EE521036E01C0E6F6E76FE8CF5BF7E7
:1048500001C05AF7060E07015C6F5E6B1C0E5D6FA0
:10486000000187EC0FF0E5C662F7E4C661F70701C7
:10487000646B1C0E636F0001B1EC07F00CEC0DF0E3
:10488000010E016ECAEF24F0000E0101CEB5010E3B
:10489000000A000103E0010A5DE086D0060E060171
:1048A000E56FC80EE46FE5C65EF7E8CF5DF7070178
:1048B000606B1C0E5F6F0001D9EC07F0F8EC12F092
:1048C000060E0601E76FC80EE66F0001F9DE06016D
:1048D000C82D08D0C95306E1CC51060803E1CD51DB
:1048E000040803E0010E016E62D0CE2D32D0CF530A
:1048F00030E10001A5510601E05D0FE10001A65184
:104900000601E15D0AE10001A7510601E25D05E152
:104910000001A8510601E35D03E0010E016E47D0DE
:10492000D9C6EEF1D8C6EDF1D7C6ECF1D6C6EBF19B
:10493000010EEA6EEF0EE96E060EE26ED00EE16E2B
:10494000060E016EE6CFEEFF012EFCD70101CE85EB
:10495000060100010601CF6B020ECE6F060EEA6E55
:10496000DA0EE96E010EE26EEF0EE16E060E016EDA
:10497000E6CFEEFF012EFCD7EEC1E3F6EDC1E2F685
:10498000ECC1E1F6EBC1E0F6060EE56FC80EE46F90
:104990000001F7D6015205E1000E016E060107D0B5
:1049A00000010101CE950001010E016E060100011A
:1049B00000EF37F0140E0101E3250601EE6F000E43
:1049C0000101E4210601EF6FE651EE25EA6FE751A0
:1049D000EF21EB6FEB51150809E2FF0A03E1EA5101
:1049E000210804E2220EEA5F160EEB5B7BCFEDF6A8
:1049F0007ACFECF6EBC67BFFEAC67AFFE9C63EF754
:104A0000E8C63DF7000100EC1AF002C0EBF601C069
:104A1000EAF6EDC67BFFECC67AFF0601EAC601F0B6
:104A2000EBC602F000011200060E0601E76FD20E7F
:104A3000E66FE7C65EF7E8CF5DF70701606B140E1F
:104A40005F6F0001D9EC07F00601D251F00BE66F61
:104A5000E76BE651400802E1E75303E0000E016E08
:104A60006ED0D8511F0B006ED9C603F00050D9117B
:104A700003E0000E016E63D0D2510F0BE66FE76BBF
:104A8000E635026EE735036E02360336FC0E02167B
:104A900002C0EAF101010601E76BE66BE96BEAC1CE
:104AA000E8F6000187DF02C0D1F601C0D0F60701A9
:104AB0001C6BEAC11BF700012CEC12F00601D0516F
:104AC000D11103E0000E016E3AD0060E0701576FB8
:104AD000D20E566F0001B4EC0EF00601C851C91198
:104AE0000CE0C8C6E9FFC9C6EAFFE2C6EFFFE3C6AD
:104AF000ECFFE4C6ECFFE5C6ECFFCAC6E9FFCB510C
:104B0000EA6EDEC6EFFFDFC6ECFFE0C6ECFFE1C6F3
:104B1000ECFFCCC6E9FFCDC6EAFFDBC6EFFFCEC691
:104B2000E9FFCFC6EAFF0101EA510601D45D006E3C
:104B3000000ED55900C0EFFFEC6E010E016E0001B2
:104B400065EF36F0060E0601D16FCC0ED06FD1C6E0
:104B50005EF7E8CF5DF70701606B040E5F6F000141
:104B6000D9EC07F00601CC5108085EE1CD535CE1B9
:104B7000E76B140EE66FCBC6E9F6CAC6E8F600018D
:104B800019DF0150021001E04ED00601CC6B080E77
:104B9000CE27CE51070804E3CF2BCF5301E1CE2B14
:104BA00000011EEC0DF00152FCE0160E07014D6FE6
:104BB000310E4C6F0001A2EC07F0C9C63EF7C8C623
:104BC0003DF7010E07013F6FCBC641F7CAC640F75C
:104BD0000001BEEC0FF0060E0601D16FCC0ED06FB7
:104BE000D1C662F7E8CF61F70701646B040E636F0B
:104BF0000001B1EC07F0040E0601CA5DD06F000E93
:104C0000CB59D16F07014D694C694F694E69516F9E
:104C1000D0C650F700010AEC08F0ABEC08F00152E6
:104C2000FCE00CEC0DF006010001CFEF36F0020EB7
:104C30000601F325E96E000EF421EA6EECCFFEF6D4
:104C4000ED52EFCFFDF6FD5305E1FE5303E1000EFB
:104C5000016E1FD3FE0EF86F020EF525E96E000EF1
:104C6000F621EA6EECCFFEF6ED52EFCFFDF6F5C67B
:104C7000E9FFF6C6EAFFECCF03F0ED52EF50FD2757
:104C80000350FE23F3C6E9FFF4C6EAFFECCF03F0BE
:104C9000ED52EF50FD270350FE23020EF325E96E7F
:104CA000000EF421EA6EECCF03F0ED52EF50FD1947
:104CB000F96F0350FE19FA6FF76BF7510108D8A08E
:104CC00085D0F7C6FDF600014EEC07F00201D25187
:104CD0000D0802E178D023D0D251040815E1020E6C
:104CE0000601F325E96E000EF421EA6EECCF03F025
:104CF000ED52EF500201D55D05E10350D65D02E1B2
:104D0000F7C6F8F660D00BD00601F9510201D55D67
:104D100005E10601FA510201D65D01E054D000011F
:104D200023EC09F0020E0601F325E96E000EF421D2
:104D3000EA6EECCFFEF6ED52EFCFFDF602016851C0
:104D40000601FD5D3FE1020169510601FE5D3AE1A8
:104D5000F3C6E9FFF4C6EAFFECCFFEF6ED52EFCF63
:104D6000FDF6020166510601FD5D2CE1020167516D
:104D70000601FE5D27E1F5C6E9FFF6C6EAFFEFCFC3
:104D8000FDF6ECCFFEF6ECCFFFF6ECCF00F702011C
:104D90006E510601FD5D16E102016F510601FE5DD7
:104DA00011E1020170510601FF5D0CE10201715138
:104DB0000701005DD8B402D0060104D0010E016ED7
:104DC000060167D202010601F72B77D7F851FE08DA
:104DD0003AE0F8C6FDF600014EEC07F023EC09F0CE
:104DE0000601F851FE082FE0FAC6D6F2F9C6D5F250
:104DF000020EFE6F6E0EFEC6EAFFE96EF6C6E2FF19
:104E0000F5C6E1FF0A0E016EE6CFEEFF012EFCD7DC
:104E1000F3C6E9FFF4C6EAFFECCF67F2ED52EFCF3D
:104E200066F2020EF325E96E000EF421EA6EECCF75
:104E300069F2ED52EFCF68F2BDC265F2BCC264F216
:104E4000010E016E26D20D0EF325E96E000EF4213F
:104E5000EA6EEFB203D0000E016E1BD20201B85110
:104E6000B91105E0000E016E060113D20201060120
:104E7000FC6BFB6BFC53D8A4F8D0FB510208D8A004
:104E8000F4D0FCC6FEF6FBC6FDF60701006B140E5F
:104E90000601FF6F0001F9EC17F001C0FDF6100EDE
:104EA00006010124016E000E0220036E0150800FE6
:104EB000E96E020E0320EA6EECCFFEF6ED52EFCF64
:104EC000FDF6FD5303E1FE5301E1CFD0FCC6FEF633
:104ED000FBC6FDF60701006B140E0601FF6F000113
:104EE000F9EC17F001C0FDF6100E06010124016E69
:104EF000000E0220036E0150800FE96E020E0320A7
:104F0000EA6EECCFFEF6ED52EFCFFDF6020EF32582
:104F1000E96E000EF421EA6EECCF03F0ED52EF5093
:104F2000FD5D03E10350FE5D01E09BD0FCC6FEF693
:104F3000FBC6FDF60701006B140E0601FF6F0001B2
:104F4000F9EC17F001C0FDF60A0E06010124016E0E
:104F5000000E0220036E0150800FE96E020E032046
:104F6000EA6EECCFFEF6ED52EFCFFDF6F3C6E9FFA9
:104F7000F4C6EAFFECCF03F0ED52EF50FD5D03E124
:104F80000350FE5D01E06DD0FCC6FEF6FBC6FDF6EB
:104F90000701006B140E0601FF6F0001F9EC17F01A
:104FA00002C0FEF601C0FDF6800E06010124E96E86
:104FB000020E0220EA6EEFCFFFF6ECCF00F7ECCF47
:104FC00001F7ECCF02F7F5C6E9FFF6C6EAFFEFCF2F
:104FD00000F0ECCF01F0ECCF02F0ECCF03F000508A
:104FE000FF5D11E101500701005DD8B402D0060158
:104FF0000AD00250015DD8B402D0060104D003509B
:10500000025D03E006012DD00701FCC6FEF6FBC6DB
:10501000FDF6006B140E0601FF6F0001F9EC17F0AE
:1050200001C0FDF6120E06010124016E000E0220E1
:10503000036E0150800F016E020E032201C0FDF6C7
:1050400003C0FEF60001E6EC17F0FEC6EAFFFDC65F
:10505000E9FF00C0EFFF01C0ECFF000E016E06018A
:1050600018D1FB2BD8B4FC2B05D7F76BF7510108EF
:10507000D8A00DD1F7C6FDF600014EEC07F00201F5
:10508000D3B701D001D1000123EC09F0020E0601D3
:10509000F325E96E000EF421EA6EECCF03F0ED5239
:1050A000EF500201685D03E10350695D01E0ECD05F
:1050B000FCC6FEF6FBC6FDF60701006B140E0601EA
:1050C000FF6F0001F9EC17F002C0FEF601C0FDF61B
:1050D000800E06010124016E020E0220036E01C043
:1050E000FFF6E8CF00F7EA6E01C0E9FFF6C6E2FF7F
:1050F000F5C6E1FF0A0E016EE6CFEEFF012EFCD7EA
:10510000FCC6FEF6FBC6FDF60701006B140E060199
:10511000FF6F0001F9EC17F001C0FDF60A0E060161
:105120000124016E000E0220036E0150800F016EFB
:10513000020E032203C0FEF6F3C6E9FFF4C6EAFF3F
:10514000ECCF03F0ED52EFCFFFF6FEC6EAFF01C051
:10515000E9FF03C0ECFFED52FFC6EFFFFCC6FEF611
:10516000FBC6FDF60701006B140E0601FF6F000180
:10517000F9EC17F001C0FDF60C0E06010124016EDA
:10518000000E0220036E0150800F016E020E0322FA
:1051900001C0FDF603C0FEF6040EF325E96E000E15
:1051A000F421EA6EEFCF00F0ECCF01F0ECCF02F08B
:1051B000ECCF03F0FEC6EAFFFDC6E9FF00C0EFFF3B
:1051C00001C0ECFF02C0ECFF03C0ECFFFCC6FEF622
:1051D000FBC6FDF60701006B140E0601FF6F000110
:1051E000F9EC17F001C0FDF6100E06010124016E66
:1051F000000E0220036E0150800F016E020E03228A
:1052000003C0FEF6020EF325E96E000EF421EA6EED
:10521000ECCF03F0ED52EFCFFFF6FEC6EAFF01C080
:10522000E9FF03C0ECFFED52FFC6EFFFFCC6FEF640
:10523000FBC6FDF60701006B140E0601FF6F0001AF
:10524000F9EC17F001C0FDF6120E06010124016E03
:10525000000E0220036E0150800F016E020E032229
:1052600001C0FDF603C0FEF60001E6EC17F0FEC635
:10527000EAFFFDC6E9FF00C0EFFF01C0ECFF000E32
:10528000016E060106D002010601F72BEFD6000ED3
:10529000016E00014AEF34F00701186B0C0E176F16
:1052A00000014EEC12F007EC08F001C013F7070103
:1052B0001351F00B176F186B18331733183317335C
:1052C0003F0E1817140E175D136F135305E1180ED8
:1052D000016E020E026E70D05E6B5D6B606B070E2E
:1052E0005F6F0001D9EC07F0070113511307000AA3
:1052F000D8B45ED0000107EC08F001C014F7070134
:10530000145301E155D0142D01D0EFD714510208E8
:1053100035E11351020801E34BD0166B156B000108
:1053200007EC08F001C014F70701145104080AE162
:10533000000107EC08F001C016F707EC08F001C007
:1053400015F707011651020805E303E11551170887
:1053500001E32ED0165104080BE2FF0A03E11551B8
:10536000B40806E2B40E016E050E026E25D005D01B
:1053700015C701F016C702F01FD019D0135101084C
:1053800001E316D0000107EC08F001C014F7070193
:105390001451135D01E20CD05E6B5D6B606B14C742
:1053A0005FF70001D9EC07F007011451135F9DD797
:1053B000180E016E020E026E000112000D0E0601A3
:1053C000F325E96E000EF421EA6EEFCF05F7080E23
:1053D000F325E96E000EF421EA6EEFCF06F7ECCF6D
:1053E00007F7ECCF08F7ECCF09F7040EF325E96EC9
:1053F000000EF421EA6EEFCF0AF7ECCF0BF7ECCFFB
:105400000CF7ECCF0DF7F80E0201D315D36FD3B91B
:1054100017D00001F8EC0CF0AC0E070100240201DB
:10542000CA6FB90E070101200201CB6F030E0701FD
:1054300002200201CC6F000E070103200201CD6F94
:10544000D251040A000103E0010A5DE00BD107011B
:105450000551040B006E036A0050031006E00001C2
:105460008DEC09F0A3EF33F007010551100B006E2E
:10547000036A0050031013E009C75FF208C75EF229
:1054800007C75DF206C75CF2040E136F146B0001D0
:105490008BEC1AF08DEC09F0A3EF33F00701055106
:1054A000020B006E036A0050031026E0010E0A256D
:1054B0000201606F000E07010B210201616F000EF7
:1054C00007010C210201626F000E07010D2102018C
:1054D000636F0001E1DE02C07CF201C07BF2120EBC
:1054E0000701136F010E146F00018BEC1AF0060E0A
:1054F0000201D26F05D0070100018DEC09F0020115
:105500000001A3EF33F007010551040B006E036A9D
:105510000050031004E00001A3EF33F00701055130
:10552000100B006E036A0050031036E002015C515C
:105530000701065D0FE102015D510701075D0AE108
:1055400002015E510701085D05E102015F5107019B
:10555000095D22E05FC20DF75EC20CF75DC20BF77A
:105560005CC20AF709C75FF208C75EF207C75DF2BF
:1055700006C75CF2040E136F010E146F00018BEC72
:105580001AF00DC75FF20CC75EF20BC75DF20AC7D7
:105590005CF2A3EF33F007010551020B006E036AC2
:1055A000005003105CE0010E0A250201606F000E3E
:1055B00007010B210201616F000E07010C2102019E
:1055C000626F000E07010D210201636F0E0E0601CE
:1055D000F325E96E000EF421EA6EECCF6BF2ED528A
:1055E000EFCF6AF2000158DE02C07CF201C07BF20C
:1055F00007010551100B006E036A0050031024E0F0
:10560000100E136F010E146F00018BEC1AF0070ED1
:105610000201D26F0001F8EC0CF0AC0E070100247F
:105620000201CA6FB90E070101200201CB6F030E00
:10563000070102200201CC6F000E070103200201C6
:10564000CD6FD3990BD00701120E136F010E146F9B
:1056500000018BEC1AF0060E0201D26F0701000167
:10566000A3EF33F0F6C60FF7F5C60EF707010551A5
:10567000010B006E036A0050031003E00E2BD8B438
:105680000F2B0551020B006E036A0050031003E05C
:105690000E2BD8B40F2B0201C951C75D1DE303E1E6
:1056A000C851C65D19E3BE51C05D0701136F020109
:1056B000BF51C1590701146F0201C851C65D006E88
:1056C000C951C759036E00500701135D036F0350A2
:1056D0001459046F10D00201C651C85D0701136F41
:1056E0000201C751C9590701146F010E135D036F01
:1056F000000E1459046F0201605107010A5D006E2B
:105700000201615107010B59016E0201625107014B
:105710000C59026E0201635107010D59006F02C05E
:10572000FFF601C0FEF600C0FDF6FEC602F7FDC69C
:1057300001F710910E510F11D8B4B3D003510411D9
:10574000D8B4AED000BF17D0005315E10601FF5307
:10575000D8B402D007010FD0FE510701045D0BE35E
:1057600008E103510601FD5DD8A002D0070103D076
:10577000070110815AD00EC700F00FC701F0026A6E
:10578000036A0E510601FD250701136F0F51060133
:10579000FE210701146F02500601FF210701156F5A
:1057A00003500021166FE8BE40D0165307E1155391
:1057B00005E1145303E11351000837E20E51035D74
:1057C000006E0F510459036E005003C001F0026ACD
:1057D000036A01AE02D00206030600AF03D003AE97
:1057E00023D002D003BE21D00051035C1EE31CE194
:1057F0000601FF51025CD8B002D0070116D0D8B420
:1058000002D0070111D0FE51015CD8B002D00701CF
:105810000CD0D8B402D0070107D0FD51005CD8B03D
:1058200002D0070102D00701108103C700F004C7AE
:1058300001F0026A036A00AF03D003AE23D002D0A6
:1058400003BE2ED00051035C2BE31CE10601FF5187
:10585000025CD8B002D0070123D0D8B402D007012F
:1058600011D0FE51015CD8B002D0070119D0D8B4D4
:1058700002D0070107D00050FD5DD8A002D007017B
:105880000FD007010E510125136F0F510221146F24
:10589000E8BE06D0145303E11351000801E2108161
:1058A00029D00601FD530DE1FE530BE1FF5309E141
:1058B00007010053D8B402D0060103D010811AD0DA
:1058C0000601070100BF16D0005314E10601FF5383
:1058D000D8B402D007010ED0FE510701045D0AE3DF
:1058E00008E103510601FD5DD8A002D0070102D0F6
:1058F0000701108110B113D00551040B006E036A2B
:105900000050031008E1100E136F010E146F000118
:105910008BEC1AF007010001A3EF33F007010551EA
:10592000060B006E036A0050031006E000018DECC8
:1059300009F0A3EF33F007010551100B006E036A65
:105940000050031004E10001A3EF33F0070102014E
:10595000D251060A00010EE0010A46E00F0A44E0B7
:10596000010A42E0020A40E0010A3EE0060AD8B419
:10597000F6D21CD302015C510701065D0FE1020162
:105980005D510701075D0AE102015E510701085DF3
:1059900005E102015F510701095D22E05FC20DF7D9
:1059A0005EC20CF75DC20BF75CC20AF709C75FF273
:1059B00008C75EF207C75DF206C75CF2040E136FFC
:1059C000010E146F00018BEC1AF00DC75FF20CC7CB
:1059D0005EF20BC75DF20AC75CF2A3EF33F007017A
:1059E000070E0201D26F000102016451C25D06017F
:1059F000FB6F02016551C3590601FC6FFCAF0CD06F
:105A00000201BC51BE5D006EBD51BF59036E005016
:105A10000601FB270350FC23026A036AFB510201C3
:105A20005C250601F76FFC5102015D210601F86F4C
:105A3000025002015E210601F96F035002015F214D
:105A40000601FA6FF7510701065D006E0601F85175
:105A500007010759016E0601F95107010859026E45
:105A60000601FA5107010959E8CFFAF602C0F9F622
:105A700001C0F8F600C0F7F60601FABF35D0FA53B8
:105A800007E1F95305E1F85303E1F75100082CE26F
:105A900002017AA113D00601F72D01D002D0020134
:105AA0000DD0F853D8B402D0020108D0F953D8B4BD
:105AB00002D0020103D0FA530CE00201100E0701DC
:105AC000136F146B00018BEC1AF0A3EF33F00BD0C3
:105AD0000601FF0E07010627D8A00727D8A0082730
